:100000000C9430010C9458010C9458010C94580134
:100010000C9458010C9458010C9458010C945801FC
:100020000C9458010C9458010C94611C0C94D01C35
:100030000C9458010C9458010C9458010C945801DC
:100040000C9458010C9458010C9458010C945801CC
:100050000C9458010C9458010C9458010C94021FF4
:100060000C9458010C9458010C9458010C945801AC
:100070000C9458010C9458010C9458010C9458019C
:100080000C9458010C9458010C9458010C9458018C
:100090000C944C1F0C9458010C9458010C9458016A
:1000A0000C9458010C9458010C9458010000000065
:1000B000000000002A2B28000000000000000000C3
:1000C0000000000000000000000000002C9EB4A012
:1000D000A1A2A434A6A7A5AE362D3738271E1F200F
:1000E000212223242526B333B62EB7B89F848586D4
:1000F0008788898A8B8C8D8E8F9091929394959618
:100100009798999A9B9C9D2F3130A3AD3504050695
:100110000708090A0B0C0D0E0F10111213141516F7
:100120001718191A1B1C1DAFB1B0B500080B00023F
:10013000020201000904000001020200000524007F
:100140001001052401010104240206052406000112
:100150000705810310004009040100020A000000A5
:100160000705020240000007058302400000040367
:10017000090412010002EF02014041233680000110
:100180000102030141726475696E6F204C4C43009B
:1001900041726475696E6F204C656F6E6172646F39
:1001A000000000000200090F0000030401000C0021
:1001B000000000000000000000000000000000003F
:1001C000000000002300260029002C002F00000062
:1001D0000000250028002B002E0031000000000048
:1001E000240027002A002D00300004040404040326
:1001F00004050202020204030202020206060606C7
:1002000006060404020202040404080201104080ED
:1002100040102040804080080204018040201002ED
:10022000011080102040402005010906A101850829
:10023000050719E029E715002501750195088102D8
:10024000190029671500250175019568810295013E
:100250007508150026E700190029E78100C06B200A
:1002600011241FBECFEFDAE0DEBFCDBF11E0A0E06A
:10027000B1E0E4EAF0E602C005900D92AC38B107B7
:10028000D9F724E0ACE8B1E001C01D92A432B20776
:10029000E1F711E0C0E3D1E004C02197FE010E9424
:1002A000F92ECF32D107C9F70E94D7220C945030D3
:1002B0000C9400000F93CF93DF93FA01DB014C9174
:1002C000502F509554235C935081502B5083FC0148
:1002D00093E0E90148E080E060E050E0788170233D
:1002E00089F05A95D9F750E07881702359F05A95E2
:1002F000D9F750E87881702329F05A95D9F76A9593
:1003000061F717C077E07A95F1F7000061E0AA0F76
:100310007881702309F0A1604A9529F4A19383950F
:1003200048E0981731F050E87881702311F75A951A
:10033000D9F7DF91CF910F910895FB01811110C082
:100340008081882379F010820895808181110AC00C
:1003500081E080838EE090E0F901918380830895AD
:10036000442399F30895CF92DF92EF92FF920F9377
:100370001F93CF93DF93D901E8016A01F901421776
:10038000530714F06901FA01882309F440C0CB0136
:100390006C157D050CF4C6019F018E179F070CF4A8
:1003A0009C01A417B50734F4CF01821B930B9C0169
:1003B0002C0D3D1D0D2C000CEE08FF08032E000C2B
:1003C000440B550B2C193D094E095F09AEEFBFEFE9
:1003D0000E94102C9F01FF0F440B550B2C193D0957
:1003E0004E095F090E94F12BDA01C9018F5F9F4717
:1003F000A109B1098883998382E090E0DF91CF91D0
:100400001F910F91FF90EF90DF90CF90089590E0B3
:1004100080E0F4CF8091BD029091BE02891B990BC0
:100420000895FC018091BC02882311F13FB7F89434
:1004300082E08093E9002091F200822F90E018166C
:10044000190614F481E090E0882339F0289844E6F6
:100450004093BB024091F1004083222339F0209168
:10046000F200211103C02BE62093E8003FBF08955E
:100470008FEF9FEF08950895089540916E02509177
:100480006F0220916C0230916D0242175307B4F451
:100490009091E8009570E1F39091E80092FD19C009
:1004A0008093F10080916E0290916F0201968F739C
:1004B0009927892B19F48EEF8093E80080916E02C2
:1004C00090916F02019690936F0280936E0281E08B
:1004D000089580E00895EF92FF920F931F93CF93BA
:1004E000DF93F82E192FE62E042F81E0860F880F58
:1004F0000E943D0283E00E943D02CF2DD12FEC0EE1
:10050000FD2EF11CCE15DF05B9F007FF13C0FE016B
:1005100084910E943D02182F80E00E943D028123B9
:1005200021968111EFCFDF91CF911F910F91FF9015
:10053000EF9008958881EDCF81E0F5CFDF92EF92C3
:10054000FF920F931F93CF93DF93D82E8A01EB0175
:100550007B01E40EF51ECE15DF0559F0D7FE12C063
:10056000FE0184910E943D0221968111F4CF0FEF8C
:100570001FEFC801DF91CF911F910F91FF90EF9076
:10058000DF9008958881EECF2FB7F894877080931D
:10059000E9009091E800892F807295FF04C0909146
:1005A000F20080E4891B2FBF0895615030F0209144
:1005B000F100FC0120830196F8CF289884E680930F
:1005C000BB020895AF92BF92CF92DF92EF92FF925B
:1005D0000F931F93CF93DF936C017B018B01040F6B
:1005E000151FEB015E01AE18BF08C017D10759F007
:1005F0006991D601ED91FC910190F081E02DC60149
:100600000995892B79F7C501DF91CF911F910F9142
:10061000FF90EF90DF90CF90BF90AF9008958091C2
:10062000640281110DC082E08093600284E08093B7
:100630006102109263021092620281E08093640270
:1006400080E692E008950F931F93CF93DF931F925C
:10065000CDB7DEB782E0898342E450E06CE271E01E
:1006600080E80E949E020E940F03DC0112960D9109
:100670001C910115110589F0D801ED91FC910280C2
:10068000F381E02DBE016F5F7F4FC801099597FD93
:1006900004C0F80100851185ECCF89810F90DF91AE
:1006A000CF911F910F910895CF93DF93FC01DB0150
:1006B000818114963C911497682F630F7727771FD9
:1006C000683071059CF5C281D381209739F5B383D9
:1006D000A283908112969C93129713968C931397F2
:1006E00015968C911597890F808390E080E0831791
:1006F00008F52181C22FD0E0BE016E5F7E4F1696B5
:100700004D915C911797480F591FEA014881EB0101
:1007100048832F5F21830196EACFEA0148855985F6
:1007200041155105D1F7B987A887D3CF80E0DF9174
:10073000CF91089581E0FBCFCF93DF931F92CDB788
:10074000DEB76983DC01ED91FC910280F381E02D3D
:1007500041E050E0BE016F5F7F4F09950F90DF9140
:10076000CF91089583E08093E9008091F20088237F
:1007700019F08AE38093E800089583E00E94C402A0
:1007800090E00895CF93DF931F92CDB7DEB7FC01C1
:100790008485958597FD08C02FEF3FEF3587248727
:1007A0000F90DF91CF910895CE0101960E94110222
:1007B000019719F4898190E0F3CF8FEF9FEFF0CF8D
:1007C0000F931F93CF93DF931F92CDB7DEB78C01AA
:1007D000FC018485958597FF0BC0CE0101960E9490
:1007E0001102019771F4898190E0F801958784875F
:1007F000F801848595850F90DF91CF911F910F911E
:1008000008958FEF9FEFF1CFFC018485958597FDCB
:100810000BC09FB7F89482E08093E9008091F200CA
:100820009FBF90E0019608959FB7F89482E080936F
:10083000E9008091F2009FBF90E0089581508F30D1
:1008400008F047C0E82FF0E0E85DFB4F0C94F92E6C
:100850004504490437043D044104690469046904FA
:100860004C04520456045A046004690464048091E0
:1008700080008F77809380000895809180008F7D25
:10088000F9CF80918000877FF5CF84B58F7784BDC5
:10089000089584B58F7DFBCF809190008F778093F2
:1008A00090000895809190008F7DF9CF8091900005
:1008B000877FF5CF8091C0008F778093C000089527
:1008C0008091C0008F7DF9CF8091C200877F809397
:1008D000C2000895CF93DF93282F30E0F901EF5540
:1008E000FE4F8491F901E75FFD4FD491F901E65184
:1008F000FE4FC491CC2389F081110E941E04EC2F7D
:10090000F0E0EE0FFF1FE253FE4FA591B4918FB7B9
:10091000F894EC91DE2BDC938FBFDF91CF9108959B
:10092000CF93DF93282F30E0F901EF55FE4F8491EC
:10093000F901E75FFD4FD491F901E651FE4FC491F3
:10094000CC23A1F081110E941E04EC2FF0E0EE0FE9
:10095000FF1FE054FE4FA591B491EC91ED2381E08F
:1009600090E009F480E0DF91CF91089580E090E07D
:10097000FACFCF93DF9390E0FC01E75FFD4F249126
:1009800086519E4FFC0184918823C9F090E0880F26
:10099000991FFC01E452FE4FA591B491FC01E25372
:1009A000FE4FC591D49161110DC09FB7F8948C9101
:1009B000209582238C938881282328839FBFDF91F1
:1009C000CF910895623051F49FB7F8943C91822FF3
:1009D000809583238C93E8812E2BEFCF8FB7F894EB
:1009E000EC912E2B2C938FBFEACF3FB7F8948091D8
:1009F0005C0290915D02A0915E02B0915F0226B50B
:100A0000A89B05C02F3F19F00196A11DB11D3FBF46
:100A1000BA2FA92F982F8827BC01CD01620F711D15
:100A2000811D911D42E0660F771F881F991F4A950F
:100A3000D1F708958F929F92AF92BF92CF92DF929B
:100A4000EF92FF924B015C010E94F5046B017C0167
:100A50000E94F5046C197D098E099F09683E734058
:100A600081059105A8F321E0821A9108A108B10837
:100A700088EEC80E83E0D81EE11CF11C811491049D
:100A8000A104B10429F7FF90EF90DF90CF90BF90C1
:100A9000AF909F908F9008957F928F929F92AF9288
:100AA000BF92CF92DF92EF92FF920F931F93CF935B
:100AB000DF93C82E8B017A018091BC02811110C096
:100AC0008FEF9FEFDF91CF911F910F91FF90EF90EC
:100AD000DF90CF90BF90AF909F908F907F900895C0
:100AE0008091720280FF05C08091E0008260809357
:100AF000E000CE2DDF2DD12C8AEFB82E8C2D877003
:100B0000982E8C2D8072882E8C2D8074782E9AE3EE
:100B1000A92E209719F4DD2009F452C08C2D0E94D3
:100B2000C40281110AC0BA94BB2051F261E070E0A6
:100B300080E090E00E941A05ECCF8C171D0611F0A2
:100B40000CF08C2F9FB7F8949092E9002091E80068
:100B500025FD02C09FBFDDCF282F30E0C21BD30B85
:100B6000882029F08150A0F01092F100FBCFF8010D
:100B7000C7FC0AC0815050F041914093F100FACF78
:100B800044914093F10031968150D0F7020F131F2A
:100B9000DD2021F0A092E800D12CDCCF8091E8008C
:100BA00085FD07C0A092E800DD24D394209791F240
:100BB000F3CF209779F6772069F2A092E800CACFA8
:100BC0005D9884E680937102C7017CCFCF93DF9359
:100BD000EC0180911401882331F083E00E944C05E0
:100BE0001816190634F081E090E09B838A8380E038
:100BF00090E0DF91CF91089585ED8093BC008091C6
:100C0000BC0084FDFCCF10920503089520913402AE
:100C1000260F3327331F21323105ECF420910503D1
:100C2000FC0190E080E0243069F082E00895A0911A
:100C300034022191AC014C5E5D4FA40FB52FB11D64
:100C40002C930196861798F380913402680F609375
:100C5000340280E0089581E008950895E091BE0295
:100C60008091BD02E81730F4F0E0E154FD4F80813F
:100C700090E008958FEF9FEF08959091BE028091CC
:100C8000BD022FEF3FEF981748F4E92FF0E0E15451
:100C9000FD4F208130E09F5F9093BE02C90108950F
:100CA000CF92DF92EF92FF920F931F93CF93DF9338
:100CB0007C01CB018A0120912903222389F0EB01D9
:100CC0006B01C40ED51ECC15DD0569F06991D70105
:100CD000ED91FC910190F081E02DC7010995F3CFD2
:100CE000642F0E940606C801DF91CF911F910F91DA
:100CF000FF90EF90DF90CF900895CF93DF931F92F6
:100D0000CDB7DEB76983209129032223F9F0209122
:100D10002603203258F021E030E0FC0133832283A7
:100D200090E080E00F90DF91CF91089580912703AC
:100D3000E82FF0E0EA5FFC4F998190838F5F80930A
:100D400027038093260381E090E0ECCF61E0CE01A1
:100D500001960E940606F7CFCF93C82F81E08093BB
:100D6000290382E58093280310922703109226031B
:100D700088E893E00E947D066C2F88E893E00E944B
:100D80007D06909126039132F0F580910503811143
:100D9000FCCF82E08093050381E0809304038FEF12
:100DA000809303031092020390930103E6E0F3E0C3
:100DB000A1EEB2E080E098132EC01092E002809184
:100DC000E002846A8093E0028091DF02813039F58D
:100DD0001092DF028091E0028093BB008091BC0002
:100DE00083FDF8CF85EC8093BC00809105038230B1
:100DF000E1F3809103038F3F31F080910303803250
:100E000011F0809103031092270310922603109291
:100E10002903CF91089521912D938F5FCCCF85EE3B
:100E2000E2CFDC01FB0191818081813A31F49D7F29
:100E300081E0913009F080E008958132E1F79B3044
:100E400029F482811F968C9381E008959A3099F756
:100E5000828150968C93F8CFFC014281FB01248162
:100E600035814217130611F40C94110780E00895A0
:100E7000DC01FB0188E4808389E4818384E482834C
:100E80001D969C911D979F709F5B93831D968D91DE
:100E90009C9124E0969587952A95E1F78F708F5B5A
:100EA000848385E00895EF92FF920F931F93CF9371
:100EB000DF93FB012081213871F52381223259F51E
:100EC000DC0112964C91248135814217130619F5E5
:100ED000EC010B851C85F12CE12C0115110589F025
:100EE000F801448155816281738180E80E949E02ED
:100EF0008F3F980749F0E80EF91ED8010D911C911B
:100F0000ECCF81E08F87C701DF91CF911F910F91C7
:100F1000FF90EF90089590E080E0F6CFCF93DF93BD
:100F2000CDB7DEB769970FB6F894DEBF0FBECDBF61
:100F3000FC01DB018C918F5F8C939E012D5F3F4FF5
:100F40008DE0D9011D928A95E9F729E0298384E093
:100F50008A8391E09D8383E08E832A8721E22B8719
:100F60009C879D879F8722E2288B27E02B8B25E09B
:100F70002C8B8E8B20E430E0388F2F8B998F8281E1
:100F80008B8395858685998B8A8B838180688D8BF1
:100F900049E150E0BE016F5F7F4F80E00E949E02FA
:100FA00069960FB6F894DEBF0FBECDBFDF91CF912B
:100FB0000895EF92FF920F931F93CF93DF931F92A9
:100FC000CDB7DEB77C018091A50381112CC011E063
:100FD00010939803109399038EE993E090939B03E9
:100FE00080939A0310929D0310929C0381E791E0F5
:100FF00090939503809394031092A00310929F0303
:101000001092A2031092A1031093A3031093A403C0
:1010100081EC80939E030E940F0364E973E00E94B9
:1010200054031093A50388E0898341E050E0BE019A
:101030006F5F7F4F809197030E944C058C0197FD55
:101040000EC0B7016C5F7F4F809197034FE050E077
:1010500080640E944C05080F191F97FD8C01C80180
:101060000F90DF91CF911F910F91FF90EF90089516
:10107000089590E080E00895FC014281FB01248105
:1010800035814217130611F40C94110780E008957E
:10109000EF92FF920F931F93CF93DF93FB01208179
:1010A000213889F52381223271F5DC0112964C91A9
:1010B000248135814217130631F58C01FC01C3856B
:1010C000D485F12CE12C209791F04C815D816A81CF
:1010D0007B818E81811180E80E949E028F3F98075C
:1010E00059F0E80EF91E0990D881C02DECCF81E0AF
:1010F000D8011F968C93C701DF91CF911F910F915B
:10110000FF90EF90089590E080E0F6CFCF93DF93CB
:10111000CDB7DEB769970FB6F894DEBF0FBECDBF6F
:10112000FC01DB018C918F5F8C939E012D5F3F4F03
:101130008DE0D9011D928A95E9F729E0298384E0A1
:101140008A8391E09D8383E08E832A8721E22B8727
:101150009C879D879F8722E2288B27E02B8B25E0A9
:101160002C8B8E8B20E430E0388F2F8B998F8281EF
:101170008B8395858685998B8A8B838180688D8BFF
:1011800049E150E0BE016F5F7F4F80E00E949E0208
:1011900069960FB6F894DEBF0FBECDBFDF91CF9139
:1011A0000895CF9380910C0281112CC0C1E0C093AF
:1011B000FF01C093000285E092E0909302028093C9
:1011C0000102109204021092030281E491E09093D4
:1011D000FC018093FB01109207021092060210920C
:1011E000090210920802C0930A02C0930B0281EC1C
:1011F000809305020E940F036BEF71E00E9454037D
:10120000C0930C028BEF91E0CF9108950F931F9341
:10121000F9012081202B2083DA012C91202B2C93A3
:1012200020814081202B30E010E00095109550E0A7
:1012300004231523DC015D9148E00083550F40F441
:1012400074E07A95F1F720837AE07A95F1F705C09A
:101250007EE07A95F1F7000020834A9529F073E04B
:101260007A95F1F70000E9CF6A9529F071E07A9557
:10127000F1F70000E0CF72E07A95F1F7000000008E
:10128000008374E07A95F1F70000000020831F913D
:101290000F9108956F927F928F929F92AF92BF921B
:1012A000CF92DF92EF92FF920F931F93CF93DF9332
:1012B00000D01F92CDB7DEB76B017A0190E0FC0140
:1012C000E75FFD4F149186519E4FFC01849190E0A1
:1012D000880F991FFC01E452FE4FA590B490FC01C9
:1012E000E253FE4F85909490FC01E054FE4F25910F
:1012F00034916FB6F89419821A821B82012FA401CF
:10130000B501CE0101960E945A01782EF1E08F13AB
:1013100030C089819FEF980F9E3FD0F09401A501C6
:1013200063E0C6010E9406096FBE872D0F900F90E3
:101330000F90DF91CF911F910F91FF90EF90DF9071
:10134000CF90BF90AF909F908F907F906F900895B7
:10135000813049F49401A50164E0C7010E940609A7
:1013600092E0792EE1CF8250823018F483E0782E1B
:10137000DBCF712CD9CFCF93CFB7F8944EE151E0AA
:1013800065E171E080911E040E944A09813041F4B8
:101390004EE151E065E171E080911E040E944A092E
:1013A000823021F0CFBF80E0CF91089581E0FCCF63
:1013B0004F925F926F927F928F929F92AF92BF9265
:1013C000CF92DF92EF92FF920F931F93CF93DF9311
:1013D00000D01F92CDB7DEB73B014A01590190E022
:1013E000FC01E75FFD4F549086519E4FFC018491B4
:1013F00090E0880F991FFC01E452FE4FE590F490B5
:10140000FC01E253FE4FC590D490FC01E054FE4F26
:10141000259134914FB6F89419821A821B82052DBA
:10142000A601B701CE0101960E945A01182F813002
:1014300051F5898181111CC09601A70163E0C301A8
:101440000E9406094FBE812F0F900F900F90DF91E1
:10145000CF911F910F91FF90EF90DF90CF90BF90B1
:10146000AF909F908F907F906F905F904F90089576
:10147000813409F03DC09601A7016AE0C4010E94D1
:10148000060912E0DFCF833009F032C08981803451
:1014900009F02EC01A81133009F02AC000000000A4
:1014A000000000000000000000000000000000003C
:1014B000000000000000000000000000000000002C
:1014C0000000000000000000000000000000960185
:1014D000A70168E0C5010E9406098B8183708130F5
:1014E00049F0823049F0833009F0ACCF16E0AACF42
:1014F00010E0A8CF14E0A6CF15E0A4CFCF93809141
:101500002F0185FF03C080E0CF910895CFB7F894F5
:101510002FE231E045E251E062E271E080911F0488
:101520000E94D80990E0813059F42FE231E045E281
:1015300051E062E271E080911F040E94D80991E0BD
:10154000823059F42FE231E045E251E062E271E08D
:1015500080911F040E94D80991E0CFBF833021F40D
:1015600080912401877F05C0843041F4809124015B
:1015700088608093240181E08927C6CF853019F6E1
:10158000EFCFEF92FF920F931F93CF93DF937C01E6
:10159000D42FE62FF0E0E455FF4FC4916C2F6F7706
:1015A000DC01ED91FC910484F585E02D09958C0119
:1015B000C7FF10C0892B11F4D1110CC0D701ED91D8
:1015C000FC910484F585E02D4D2F61EEC70109954E
:1015D000082B192BC801DF91CF911F910F91FF901C
:1015E000EF900895AF92CF92EF920F931F93CF9306
:1015F000DF93162FD42FC22F60E3811161E388E3BC
:1016000093E00E949C0360E3111161E388E393E09F
:101610000E949C0360E3D11161E388E393E00E94A0
:101620009C0360E3C11161E388E393E00E949C03A3
:1016300060E3011161E388E393E00E949C0360E3AF
:10164000E11061E388E393E00E949C0360E3C11032
:1016500061E388E393E00E949C0360E3A11061E3EF
:1016600088E393E0DF91CF911F910F91EF90CF909E
:10167000AF900C949C03289800000000000000002C
:10168000000000000000000000000000000000005A
:1016900000000000289A0000000000000000000088
:1016A000000000000000000000000000000000003A
:1016B000000000000000000000000000000000002A
:1016C000000000000000000000000000000000001A
:1016D000000000000000000000000000000000000A
:1016E000000008952898000000000000000000009D
:1016F00000000000000000000000000000000000EA
:1017000000000000000000000000000000000000D9
:1017100000000000000000000000000000000000C9
:1017200000000000000000000000000000000000B9
:1017300000000000000000000000000000000000A9
:101740000000289A000000000000000000000000D7
:101750000895CF930E947E0A8823E1F30E94F50446
:101760006093F7017093F8018093F9019093FA0167
:1017700060E081E10E94B9041899FECF0E94F5044F
:101780006093F3017093F4018093F5019093F60157
:101790008BEC91E00197F1F7CFB7F89461E081E12C
:1017A0000E94B9040E94720B0E94720B0E94720B7D
:1017B0000E94720B0E94720B0E94720B0E94720BAD
:1017C0000E94720B0E943B0B0E94720B0E94720BD4
:1017D0000E94720B0E94720B0E94720B0E94720B8D
:1017E0000E94720B0E943B0B0E94720B0E94720BB4
:1017F0000E94720B0E94720B0E94720B0E94720B6D
:101800000E94720B0E943B0B0E94720B0E94720B93
:101810000E94720B0E94720B0E94720B0E94720B4C
:101820000E94720B0E943B0B0E94720B0E94720B73
:101830000E94720B0E94720B0E94720B0E94720B2C
:101840000E94720B0E94720B0E94720B0E94720B1C
:101850000E943B0B0E943B0B0E943B0B0E943B0BE8
:101860000E943B0B0E94720B0E94720B0E94720B33
:101870000E943B0B0E943B0B0E943B0B0E943B0BC8
:101880000E943B0B000000000000000028980000B0
:101890000000000000000000000000000000000048
:1018A0000000000000000000000000000000000038
:1018B0000000000000000000000000000000000028
:1018C0000000000000000000000000000000289A56
:1018D00060E081E10E94B904CFBF8091F301909153
:1018E000F4012091F7013091F801821B930B909342
:1018F000F2018093F101CF910895EF92FF920F933F
:101900001F93CF937C018B01C42F0E94A90B809160
:10191000F1019091F201E816F906E0F0C43029F4E3
:101920008F54924087379105C0F0C09382028EEFAA
:101930008C0F823010F0C53099F4809175028111BE
:101940000FC081E08093A302CF911F910F91FF9070
:10195000EF9008958017910708F70E94A90BE5CF33
:101960001092A302F1CF1092820280918202811123
:101970005BC00E94A90B8091F1019091F20181322C
:101980002EE4920790F78D3D2EE1920760F08034AF
:101990002FE1920720F541E060E47FE18CED9EE1CC
:1019A0000E947D0CE2CF813B2DE1920750F08837F9
:1019B0002EE19207A0F442E068E77EE180EB9DE132
:1019C000EFCF873C22E0920730F1823523E0920787
:1019D00030F443E062E573E086EC92E0E1CF813BD6
:1019E00026E39207E8F088392AE3920730F445E0CD
:1019F00068E97AE380EB96E3D3CF88392AE392074C
:101A000079F080389E4308F0B0CF44E060E87EE390
:101A100088E99AE3C5CF8F3422E0920708F4A5CF76
:101A2000863C924090F3A1CF813039F48CE49DE163
:101A300090938102809380020DC0823019F488E572
:101A40009BE1F6CF9DEF980F923058F410928102EF
:101A5000109280021092B6020E947E0A8823E1F35F
:101A600008958530B9F780EB96E3E2CF482F50E038
:101A700090918D02911102C090918C02949F9001DF
:101A8000959F300D11243093F0012093EF01462FE4
:101A900050E090918B02911102C090918A02949F24
:101AA0009001959F300D11243093EE012093ED01AC
:101AB0008093EC016093EB010895E1E9F2E08091FD
:101AC0008D0290918C02482F491B550B8091EC019F
:101AD000849F802D11248058848780918B0290915F
:101AE0008A02482F491B550B8091EB01849F802D62
:101AF00011248058858708958091AA029091A902A7
:101B00009923A9F0811103C081E080938C02809118
:101B1000A8029091A702992381F0811110C081E061
:101B200080938B02089581E080938A020895882330
:101B300071F381E080938D02EACF8111F4CF089593
:101B4000CF92DF92EF92FF92CF9369017A019B01CE
:101B5000AC016091E7017091E8018091E9019091F9
:101B6000EA010E94B92C81110EC0C1E0A7019601C3
:101B70006091E3017091E4018091E5019091E601AB
:101B80000E94B92C8111C0E08C2FCF91FF90EF9073
:101B9000DF90CF900895CF93DF938091AB028111B6
:101BA00009C08091AD02882309F458C080917F025A
:101BB000811138C08091AC02811130C060E580E5B0
:101BC0000E94360D80918902882341F180918B0219
:101BD000882321F06BE28BE20E94360D80918A020D
:101BE000882321F067E389E30E94360D80917D020E
:101BF0008823A1F08091A502882321F06EE183E380
:101C00000E94360D8091A602882341F080918B02BC
:101C10008823F1F166E486E20E94360D8091AD02E0
:101C20008823E1F0809189028823C1F080917D02B0
:101C30008823A1F08091AB02811110C08091AC0289
:101C400081110CC080917F02811108C08091A50292
:101C5000882309F16DE18AE40E94360D8091AC027F
:101C6000882339F1D0918902C0917D02D1111AC027
:101C7000C1111AC080917E0281111BC0DD23C9F001
:101C8000CC23B9F06BE28BE2DF91CF910C94360D4F
:101C900064E488E2C1CF8091A6028823F9F26AE465
:101CA0008DE1DACFC111E6CF6BE283E30E94360DFE
:101CB000E1CFDF91CF9108959091A5028091B30279
:101CC0002091AD0221112DC09923A9F068E1811165
:101CD0000DC08091B402882321F06FE184E30C945D
:101CE000360D8091B202882319F063E281E3F7CFC9
:101CF0006BE283E3F4CF882319F069E38CE1EFCF43
:101D00008091B402882319F069E382E2E8CF8091E0
:101D1000B202882319F06FE38DE2E1CF69E38FE22D
:101D2000DECF992399F0882319F063E287E4D7CFB7
:101D30008091B402882319F069E284E4D0CF8091C5
:101D4000B2028823A9F26BE28DE3C9CF882319F090
:101D500067E483E2C4CF8091B402882319F064E47D
:101D600089E2BDCF8091B2028823C1F260E48EE2A5
:101D7000B6CF80917A02882341F080917D02811153
:101D800004C060E080E50C94360D089520918C022B
:101D9000211102C020918D022093890230918B0283
:101DA000311102C030918A0230937D029091A502D8
:101DB000911102C09091A60290937E028091AA0296
:101DC00081118091A90280937A028091840281110D
:101DD0000AC080918302811106C080918502811121
:101DE00002C08091860280937C029923D9F033232C
:101DF000C9F02223B9F0882321F08091AC0221E0C0
:101E0000822780937F0280917402882351F0809111
:101E1000AB02882321F08091B3019111892F809327
:101E2000B301089580E0EDCFCF93DF938091A502B9
:101E300020917C02882321F09091A602911160C02C
:101E40009091C101911191C010929B0210929C023D
:101E50001092990210929A02E09186027091850286
:101E60004E2F471B550BDA01F0E5F49F902D1124FE
:101E700090589093A0026091840230918302C62F03
:101E8000C31BDD0BCF9F402D1124405840939F0270
:101E900090918902911122C090917D029923F1F0D5
:101EA000E11102C07723D1F0611118C0311116C0C1
:101EB0008823A1F080918B0290918A02891B990B53
:101EC00097E1899F802D1124805880939F0281E49F
:101ED0008A9F802D112480588093A002222319F01C
:101EE00081E08093C001E093C2017093C3016093CD
:101EF000C4013093C501222379F1DF91CF91089578
:101F00008091C001811122C09091840290939B0224
:101F100030918502309399028091830280939C02D4
:101F20004091860240939A0250E85093A002509349
:101F30009F02222319F051E05093C1014093C20146
:101F40003093C3019093C4018093C5012111D5CF73
:101F50008091C101811104C08091C001882369F280
:101F60001092C1011092C001C8CF2223C9F3C5CF7E
:101F70006F927F928F929F92AF92BF92CF92DF9299
:101F8000EF92FF920F931F93CF93DF93CDB7DEB7FE
:101F90003801F401DC011C91111104C0DA011C911B
:101FA00011111C92DC011C91112331F0DA011C91FA
:101FB000112311F0DC011C92DB011C91111104C0F2
:101FC000D9011C9111111C92DB011C91112331F0DC
:101FD000D9011C91112311F0DB011C92DB016C91E2
:101FE000DC018C9181111BC0611125C0D5011C92AF
:101FF0001082F601108281E0D3018C93F701808377
:10200000DF91CF911F910F91FF90EF90DF90CF90D4
:10201000BF90AF909F908F907F906F9008956111C7
:1020200014C081E0D7018C931082F6018083D30124
:102030008C91F501E4CF81E0D3018C93D5011C9202
:10204000D6018C93D7018C91DACFD5018C91D60132
:102050009C919923E1F021E08227D3019C91899FF3
:10206000C00111248170D5018C9380818227D70112
:102070009C91899FC001112481708083D6011C929C
:102080008081F7018083D5018C91F301B8CF811154
:10209000B7CF80818111B4CF81E0DA018C93F9014F
:1020A000AECF8F929F92AF92BF92CF92DF92EF927C
:1020B000FF920F931F938091C001882341F080917C
:1020C000A502882321F08091A60281110CC0809185
:1020D000C1018823A1F18091A502882321F080917C
:1020E000A60281112CC08091C201811107C080918C
:1020F000B502882319F081E08093B0018091C3017B
:10210000811107C08091B402882319F081E0809387
:10211000AF018091C401811107C08091B202882370
:1021200019F081E08093B1018091C501811107C050
:102130008091B302882319F081E08093B2018DE889
:10214000882E82E0982E9CE8A92E92E0B92E2EE9E6
:10215000C22E21E0D22E33EAE32E31E0F32E02EA42
:1021600011E027EA31E046EA51E06AEA72E089EAE2
:1021700092E00E94B80F4AE8842E42E0942E5BE879
:10218000A52E52E0B52E6FE9C62E61E0D62E75EA77
:10219000E72E71E0F72E04EA11E029EA31E048EA7F
:1021A00051E068EA72E087EA92E00E94B80FE6E840
:1021B0008E2EE2E09E2EF5E8AF2EF2E0BF2EA0EAD2
:1021C000CA2EA1E0DA2EBCEAEB2EB1E0FB2E0BEA20
:1021D00011E020EB31E04FEA51E065EB72E084EB77
:1021E00092E00E94B80F13E8812E12E0912E04E8CD
:1021F000A02E02E0B02E81EAC82E81E0D82E9EEA01
:10220000E92E91E0F92E0DEA11E022EB31E041EBED
:1022100051E063EB72E082EB92E00E94B80F60E560
:1022200080E50E94360D80917C02811108C01092D9
:10223000C2011092C3011092C4011092C5011F91F6
:102240000F91FF90EF90DF90CF90BF90AF909F9055
:102250008F9008958091AE02809391028091AF0299
:10226000809392028091B002809393028091B10298
:10227000809394028091AC02809397029091AD027A
:1022800090939502309174029091AB02311120C06D
:102290009093960220EE929F202D1124215E209390
:1022A000A202332349F02091A502222329F0209194
:1022B000A6022111909396029091A4029093980205
:1022C00090EE899F802D1124815E8093A102089554
:1022D00020E0992331F02091B301222329F02091AD
:1022E0008B0220939602D6CF292FFBCFCF930E944B
:1022F0002A110E9451100E94140F0E94C60EC09114
:102300007D0225E931E04C2F67E971E080918D0273
:102310000E949D0125E931E04C2F64E971E0809134
:102320008C020E949D018091950190919601C0912F
:102330008902181619060CF031C1CC2309F42EC1FC
:10234000019790939601809395018091BC01811132
:1023500017C08091BD01811108C180918B02882333
:1023600019F081E08093BC0180918A02882319F0E2
:1023700081E08093BD018091BC01882309F4F5C000
:102380008091A702882329F081E080938B028093BB
:10239000920180918A02882329F010928A0281E0BA
:1023A0008093A9012DE831E04C2F6FE871E0809116
:1023B0008B020E949D012DE831E04C2F6CE871E00A
:1023C00080918A020E949D0180918D0190918E01E1
:1023D000181619060CF034C120917D02222309F44D
:1023E0002FC1019790938E0180938D018091BF0141
:1023F000811117C08091BE01811109C180918D02A8
:10240000882319F081E08093BF0180918C0288239A
:1024100019F081E08093BE018091BF01882309F407
:10242000F6C08091AA02882329F081E080938D0272
:102430008093910180918C02882329F010928C0264
:1024400081E08093A6018091A6029091A502992334
:1024500009F497C1811128C067E185E30E94360D18
:1024600080918902882369F080917D02882349F058
:102470008091AC02882309F420C16EE183E30E94BD
:10248000360D0E94B90E80917402882369F0809104
:10249000AB02882349F080918B02811105C0109214
:1024A00096028DE78093A20280917F02882351F0EB
:1024B0008091A502882321F08091A602811102C09B
:1024C0000E945C0E0E94CB0D2091AE028091AA0169
:1024D00021112DC181111092AA014091EF0150915B
:1024E000F001403451050CF4EEC080918C02811152
:1024F00024C180919D01811110929D0180918D02D6
:1025000081112DC180919A01811110929A018091BF
:102510009B0190919C01181619062CF40197909339
:102520009C0180939B0180919801909199011816CC
:102530001906C4F46091ED017091EE0167317105E7
:1025400064F0222351F020918B02222309F4DDC094
:102550001092910221E02093AA0101979093990192
:1025600080939801CF910C945D0D8091BD018823DB
:1025700009F418CF8091A802882329F081E0809384
:102580008A028093930180918B02882309F40ACFF9
:1025900010928B0281E08093A80104CF8091A70262
:1025A000882391F08091BC01882371F0CC2361F0E5
:1025B00080919201882341F080918A02811104C0A8
:1025C00081E080938B02EECE8091A802882391F067
:1025D0008091BD01882371F0CC2361F0809193013B
:1025E000882341F080918B02811104C081E08093A7
:1025F0008A02D8CE10929601109295011092BD01D8
:102600001092BC011092920110929301CBCE809156
:10261000BE01882309F417CF8091A902882329F0ED
:1026200081E080938C028093900180918D028823B9
:1026300009F409CF10928D0281E08093A70103CFA6
:102640008091AA028823A1F08091BF01882381F0A4
:1026500080917D02882361F080919101882341F06F
:1026600080918C02811104C081E080938D02EBCEB9
:102670008091A9028823A1F08091BE01882381F076
:1026800080917D02882361F080919001882341F040
:1026900080918D02811104C081E080938C02D3CEA1
:1026A00010928E0110928D011092BE011092BF0106
:1026B0001092910110929001C6CE67E18BE3DFCEBC
:1026C00064E488E27CC080919B0190919C01181683
:1026D00019060CF028CF80918B02882359F0809145
:1026E000ED019091EE0147972CF01092910281E05C
:1026F0008093AA0110929C0110929B0183E190E0CB
:10270000909399018093980102CF20918A0222230D
:1027100009F423CF403451050CF01FCF6533710508
:102720000CF01BCF8C3091050CF012CF16CF882304
:1027300009F4D3CE10929102D0CE80917D02811106
:10274000DDCE80919D018111D9CE81E080939D01E4
:1027500084E090E090939C0180939B01CFCE809188
:102760007D028111D4CE80919A018111D0CE81E079
:1027700080939A0184E090E090939C0180939B0168
:10278000C6CE882309F490CE6BE38BE10E94360D10
:10279000809189028823A9F080917D02882329F104
:1027A0006BE387E10E94360D8091AC02882349F0EB
:1027B00080918B02882309F483CF66E486E20E942D
:1027C000360D0E94B90E80917402882309F46CCEF4
:1027D0008091AB02882309F467CE80918B0281112E
:1027E00063CE1092960280E55DCE8091AF02882381
:1027F00041F360E580E5E3CF87E00E94900421E0AB
:10280000892B09F020E02093AB028FE00E94900416
:1028100021E0892B09F020E02093A90280E10E94A9
:10282000900421E0892B09F020E02093A8028EE09B
:102830000E94900421E0892B09F020E02093AA0255
:1028400088E00E94900421E0892B09F020E0209389
:10285000A50286E00E94900421E0892B09F020E087
:102860002093A6028CE00E94900421E0892B09F0BD
:1028700020E02093A40280E00E94900421E0892BB4
:1028800009F020E02093AC0287E10E94900421E04F
:10289000892B09F020E02093B00284E00E9490048C
:1028A00021E0892B09F020E02093AF0281E00E9413
:1028B000900421E0892B09F020E02093B10286E109
:1028C0000E94900421E0892B09F020E02093AD02C2
:1028D00085E10E94900421E0892B09F020E02093FB
:1028E000A7028DE00E94900421E0892B09F020E0EE
:1028F0002093AE0284E10E94900421E0892B09F02C
:1029000020E02093B20282E10E94900421E0892B12
:1029100009F020E02093B50283E10E94900421E0B9
:10292000892B09F020E02093B40285E00E949004F6
:1029300021E0892B09F020E02093B3020895FC01E7
:10294000BC01615F7F4F30E020E09481492F50E06F
:1029500090FF02C02F5F3F4F55954795942F41112F
:10296000F5CF148231966E177F0779F7C901089564
:10297000FC016836C0F4862F877021E030E001C08A
:10298000220F8A95EAF7669566956695E60FF11D22
:102990008581442329F0282B258381E090E0089548
:1029A00020952823F9CF90E2960F983078F484810F
:1029B00021E030E001C0220F9A95EAF7442319F094
:1029C000282B2483EACF20952823FBCF8289442318
:1029D00031F0681711F0811106C0628BDECF6813E9
:1029E00002C0128ADACF90E080E0089567FD03C04C
:1029F00041E00C94C10A21E030E0FC0133832283E2
:102A000090E080E008950F931F93CF93DF9367FFCB
:102A10000DC021E030E0FC013383228310E000E0B0
:102A2000C801DF91CF911F910F910895EC0140E013
:102A30000E94C10A8C01892B99F3E881F9810284F3
:102A4000F385E02DCE010995EBCFFF920F931F93F5
:102A5000CF93DF93EC01F62E0E94F6148C01892BA4
:102A600059F0E881F9810284F385E02DCE010995C2
:102A70006F2DCE010E940315C801DF91CF911F91E8
:102A80000F91FF9008958F929F92AF92BF92CF9235
:102A9000DF92EF92FF920F931F93CF93DF93CDB707
:102AA000DEB7ADB6BEB680911D042DB73EB7281B6C
:102AB00031090FB6F8943EBF0FBE2DBF8DB79EB73C
:102AC00001966C01E090EC03F12C8091E803909169
:102AD000E903D601FC019F01281B390B2E153F0588
:102AE0001CF421912D93F7CF8091ED03882359F1A8
:102AF0008091E4039091E50328E097FD09C068E622
:102B000071E00E94E52E6DE270E00E94E52E262F16
:102B10008091E6039091E70368E097FD08C068E6BE
:102B200071E00E94E52E6DE270E00E94E52EF60154
:102B3000EE0DFF1D90E1699FB0011124262B20832B
:102B4000F70131967F0186010E0D1F1D2091F203C2
:102B50003091F3034091F0035091F1036091CE0363
:102B60007091CF038091EE0381700E94B301E80E53
:102B7000F91E86010E0D1F1D2091F6033091F703FB
:102B80004091F4035091F5036091D0037091D1030B
:102B90008091EE03869581700E94B301E80EF91EC4
:102BA00086010E0D1F1D2091FA033091FB03409109
:102BB000F8035091F9036091D2037091D30380918F
:102BC000EE0382FB882780F90E94B301E80EF91E0C
:102BD00086010E0D1F1D2091FE033091FF034091D1
:102BE000FC035091FD036091D4037091D503809153
:102BF000EE0383FB882780F90E94B301E80EF91EDB
:102C000086010E0D1F1D2091020430910304409196
:102C10000004509101046091D6037091D703809114
:102C2000EE03829581700E94B301E80EF91E8601C1
:102C30000E0D1F1D209106043091070440910404DD
:102C4000509105046091D8037091D9038091EE03EF
:102C500085FB882780F90E94B301E80EF91E8601E2
:102C60000E0D1F1D20910A0430910B0440910804A1
:102C7000509109046091DC037091DD038091EF03B2
:102C800081700E94B301E80EF91E86010E0D1F1D12
:102C900020910E0430910F0440910C0450910D04CA
:102CA0006091DA037091DB038091EF038695817068
:102CB0000E94B301E80EF91E86010E0D1F1D209122
:102CC000120430911304409110045091110460914A
:102CD000DE037091DF038091EF0382FB882780F988
:102CE0000E94B301E80EF91E86010E0D1F1D2091F2
:102CF000160430911704409114045091150460910A
:102D0000E0037091E1038091EF0383FB882780F952
:102D10000E94B3018E0D9F1D8601080F191F20917F
:102D20001A0430911B0440911804509119046091C9
:102D3000E2037091E3038091EF03829581700E941A
:102D4000B3010E94D1084C0140911D0480911C04E4
:102D500050E07A01FFEFEF1AFF0A2DB73EB72E19A8
:102D60003F090FB6F8943EBF0FBE2DBF0DB71EB77B
:102D70000F5F1F4FEDB7FEB78183B601C801019603
:102D80000E944730F4018381A701B80180640E944A
:102D90004C050FB6F894BEBE0FBEADBEDF91CF910D
:102DA0001F910F91FF90EF90DF90CF90BF90AF9069
:102DB0009F908F9008959091EB03891700F5E82F6D
:102DC000E695E695E6952091E8033091E903E20F58
:102DD000F32FF11D282F277081E090E0A0E0B0E0F4
:102DE00004C0880F991FAA1FBB1F2A95D2F7208104
:102DF000822B80838091EA0381110C9443150895FE
:102E0000E82FE695E695E6952091E8033091E903F1
:102E1000E20FF32FF11D282F277081E090E0A0E052
:102E2000B0E004C0880F991FAA1FBB1F2A95D2F7D4
:102E300080959081892380838091EA0381110C948D
:102E400043150895EF92FF921F93CF93DF93CDB771
:102E5000DEB72C970FB6F894DEBF0FBECDBF8091C2
:102E600005038111FCCF81E0809305038093040367
:102E70009FEF909303031092020395E09093010358
:102E80008093E0028091E002846A8093E002809166
:102E9000DF02813091F51092DF028091E002809391
:102EA000BB008091BC0083FDF8CF85EC8093BC0013
:102EB000809105038130E1F3809102038630F8F4BC
:102EC00080910203A1EEB2E0EFEBF2E010E0181304
:102ED00018C01092BE021093BD02CE0101967C0173
:102EE0008091BE02181789F088E893E00E943D06A1
:102EF000F701819391937F01F3CF85EED7CF86E0E1
:102F0000E1CF9D9191931F5FE2CF89819A81909348
:102F10002B0380932A038B819C8190932D038093B4
:102F20002C038B859C852D813E81220F331F220F20
:102F3000331FAC01559547955595479543705527D7
:102F4000242B352B30932F0320932E032F8138858C
:102F5000220F331F220F331FAC01E4E05595479534
:102F6000EA95E1F743705527242B352B3093310335
:102F70002093300329853A85220F331F220F331FF8
:102F8000AC01A6E055954795AA95E1F74370552702
:102F9000242B352B30933303209332039C0120954F
:102FA000309521703327309335032093340321E08B
:102FB00030E081FF02C030E020E0309337032093FF
:102FC000360360E080E02C960FB6F894DEBF0FBEAB
:102FD000CDBFDF91CF911F91FF90EF900C94AC0685
:102FE000789460E081E10E94B9040E9422178091E8
:102FF0002A0390918F02891B80939D0280912C035C
:1030000090918E02891B80939E028091A302209151
:10301000340330913503882371F0232B41F481E090
:103020002091360330913703232B09F480E08195FA
:103030008093A202089581E02115310509F480E012
:10304000809396028091360390913703892B91F3F8
:10305000232B81F31092960280E5EACF1F93CF9342
:10306000DF93EC01162F0E94DB2B181739F0612F2C
:10307000CE01DF91CF911F910C94E32BDF91CF9183
:103080001F9108952F923F924F925F926F927F927D
:103090008F929F92AF92BF92CF92DF92EF92FF9268
:1030A0000F931F93CF93DF93CDB7DEB72E970FB655
:1030B000F894DEBF0FBECDBF60919D0270E090E03E
:1030C00080E00E94662D4B015C0160919E0270E0E1
:1030D00090E080E00E94662D6B017C0120E030E0F2
:1030E00040E053E4C501B4010E94182E18160CF0FC
:1030F000ADC181E090E09093DA018093D90120E0A6
:1031000030E040E053E4C501B4010E94B92C87FFD0
:10311000A2C181E090E09093D8018093D70120E094
:1031200030E040E053E4C701B6010E94182E1816A3
:103130000CF096C181E090E09093CE018093CD0198
:1031400020E030E040E053E4C701B6010E94B92C12
:1031500087FF8BC181E090E09093CC018093CB01FD
:103160000091D9011091DA018091D7019091D80195
:103170009E878D87B801681B790B072E000C880B82
:10318000990B0E94682D69837A838B839C8320E04E
:1031900030E040E053E4C501B4010E944C2C298189
:1031A0003A814B815C810E941D2E4B015C01809213
:1031B000E7019092E801A092E901B092EA01209023
:1031C000CB013090CC016091CD017091CE0162199C
:1031D0007309072E000C880B990B0E94682D6987D4
:1031E0007A878B879C8720E030E040E053E4C7017A
:1031F000B6010E944C2C29853A854B855C850E943E
:103200001D2E6B017C01C092E301D092E401E0929B
:10321000E501F092E60120E030E040EA52E4C50129
:10322000B4010E94BE2C6093D3017093D4018093AB
:10323000D5019093D60120E030E040EA52E4C70186
:10324000B6010E94BE2C6093CF017093D001809391
:10325000D1019093D201A5019401C501B4010E944E
:103260001D2E2B013C01A7019601C701B6010E944A
:103270001D2E9B01AC01C301B2010E944D2C0E9486
:10328000902E2B013C0120E030E040EA52E40E9405
:10329000182E1816C4F5A3019201C501B4010E94AD
:1032A000BE2C20E030E040EA52E40E941D2E0E9435
:1032B000302D072E000C880B990B0E94682D60930F
:1032C000E7017093E8018093E9019093EA01A3017B
:1032D0009201C701B6010E94BE2C20E030E040EA16
:1032E00052E40E941D2E0E94302D072E000C880BE8
:1032F000990B0E94682D6093E3017093E401809321
:10330000E5019093E60120E030E040EA52E460916C
:10331000E7017091E8018091E9019091EA010E9432
:10332000BE2C6B017C01C092E701D092E801E092D3
:10333000E901F092EA0120E030E040EA52E46091D5
:10334000E3017091E4018091E5019091E6010E9412
:10335000BE2C2B013C014092E3015092E4016092AB
:10336000E5017092E601A701960169817A818B815E
:103370009C810E941D2E6D837E838F839887209170
:10338000DB013091DC014091DD015091DE010E94B2
:103390004C2C4B015C0120E030E0A9010E94182E6A
:1033A000181624F0B7FAB094B7F8B09423E333E3D7
:1033B00043E95EE3C701B6010E94B92C87FF10C044
:1033C00023E333E343E95EE3C301B2010E94B92C76
:1033D00087FF06C082E090E09093C8018093C70108
:1033E00080919102882309F445C08091C601833001
:1033F00018F48F5F8093C6012DEC3CEC4CE85EE343
:10340000C301B2010E94182E1816BCF51092C80113
:103410001092C701012B09F492C023E333E343E97F
:103420005EE3C701B6010E94182E87FD88C0809117
:10343000CA01843018F48F5F8093CA01AD85BE85C0
:10344000AB2B09F08DC01092C90191C01092DA0126
:103450001092D90154CE1092D8011092D7015FCEAC
:103460001092CE011092CD016BCE1092CC01109231
:10347000CB0176CE1092C601BFCF2DEC3CEC4CE8D0
:103480005EE3C701B6010E94182E18161CF6809143
:10349000C7019091C801181619060CF0BBCF2AE994
:1034A00039E949E45FE3C701B6010E94182E1816F6
:1034B00054F020E030E040E85EE3C501B4010E9432
:1034C000B92C181674F01092C8011092C70180919F
:1034D000C7019091C80101979093C8018093C701DB
:1034E00099CF8091C6018150823088F380919202F9
:1034F0008111EDCF809197028111E9CF80919602E1
:103500008111E5CF809193028111E1CF80919402E6
:103510008111DDCF809195028111D9CF8091A202D6
:103520008B32A8F68091A1028B3288F61092D301DB
:103530001092D4011092D5011092D601C8CF1092EA
:10354000CA01AD85BE85AB2B09F47DCF23E333E300
:1035500043E95EE3C701B6010E94182E87FD73CFD1
:103560008091C901843018F48F5F8093C9018091E4
:103570009702882309F4F6C080910001909101011F
:1035800097FF99C18091CA01843029F08091C901C7
:10359000843009F007C12A94232809F003C123E3EA
:1035A00033E343E35FE366E676E686E39FE30E9468
:1035B000A00D8111BEC023E333E343E35FE3CA01FF
:1035C000B9010E94A00D8111B4C026E636E646E39B
:1035D0005FE363E373E383E39FE30E94A00D811144
:1035E000A8C026E636E646E35FE360E070E080E3ED
:1035F0009FE30E94A00D81119CC02AE939E949E3AB
:103600005FE360E070E080E39FE30E94A00D811122
:1036100090C02AE939E949E35FE36DEC7CEC8CE288
:103620009FE30E94A00D811184C02DEC3CEC4CE383
:103630005FE36DEC7CEC8CE29FE30E94A00D8111B6
:1036400078C02DEC3CEC4CE35FE36AE979E989E270
:103650009FE30E94A00D81116CC02DEC3CEC4CE36B
:103660005FE366E676E686E29FE30E94A00D8111A5
:1036700060C020E030E040E45FE366E676E686E2A4
:103680009FE30E94A00D811154C020E030E040E48F
:103690005FE363E373E383E29FE30E94A00D811184
:1036A00048C023E333E343E45FE363E373E383E28C
:1036B0009FE30E94A00D81113CC023E333E343E468
:1036C0005FE360E070E080E29FE30E94A00D811163
:1036D00030C026E636E646E45FE360E070E080E274
:1036E0009FE30E94A00D811124C026E636E646E441
:1036F0005FE36DEC7CEC8CE19FE30E94A00D8111F7
:1037000018C02AE939E949E45FE36DEC7CEC8CE10F
:103710009FE30E94A00D81110CC02AE939E949E418
:103720005FE36AE979E989E19FE30E94A00D8823BC
:10373000C9F18AE999E9A9E3BFE38093D3019093A2
:10374000D401A093D501B093D60180E090E0A0E32E
:10375000BFE38093CF019093D001A093D101B093A8
:10376000D20120C080919602811106CF8091A202E1
:103770008B3250F49091A1029B3230F422E030E081
:1037800030930101209300018B3208F0F5CE809137
:10379000A1028B3208F0F0CE8091000190910101DE
:1037A00097FDF0CE8091DF019091E001A091E101C1
:1037B000B091E2018093DB019093DC01A093DD01E5
:1037C000B093DE018D819E81AF81B8858093DF014A
:1037D0009093E001A093E101B093E20120E030E09A
:1037E00040EA52E46091D3017091D4018091D501F7
:1037F0009091D6010E941D2E29813A814B815C81D6
:103800000E941D2E20E030E040E053E40E944D2C49
:103810004B015C018092D3019092D401A092D5011A
:10382000B092D60120E030E040EA52E46091CF014E
:103830007091D0018091D1019091D2010E941D2EF2
:1038400029853A854B855C850E941D2E20E030E05D
:1038500040E053E40E944D2C6B017C01C092CF01EB
:10386000D092D001E092D101F092D201C501B40111
:103870000E94372D60939D02C701B6010E94372D2B
:1038800060939E022E960FB6F894DEBF0FBECDBF9A
:10389000DF91CF911F910F91FF90EF90DF90CF902C
:1038A000BF90AF909F908F907F906F905F904F9060
:1038B0003F902F900895019790930101809300010C
:1038C0006BCF1F920F920FB60F9211248F939F937D
:1038D0008091E1009091E100937F9093E10083FF5C
:1038E0000FC01092E90091E09093EB001092EC0071
:1038F00092E39093ED001092BC0298E09093F00058
:1039000082FF22C093E09093E9009091F200992306
:1039100019F09AE39093E80090917102992341F095
:1039200090917102915090937102911101C05D9A32
:103930009091BB02992341F09091BB0291509093DA
:10394000BB02911101C0289A84FF18C08091E20047
:103950008E7E81608093E2008091E1008F7E809373
:10396000E100809172028E7E8061809372029F914D
:103970008F910F900FBE0F901F90189580FFF7CF7B
:103980008091E2008E7E80618093E2008091E10070
:103990008E7E8093E100809172028E7E8160E5CF01
:1039A0001F920F920FB60F921124CF92DF92EF92D7
:1039B000FF920F931F932F933F934F935F936F93B8
:1039C0007F938F939F93AF93BF93EF93FF93CF9387
:1039D000DF93CDB7DEB76C97DEBFCDBF1092E900A5
:1039E0008091E80083FF25C068E0CE0145960E94E3
:1039F000D50282EF8093E8008D8987FF39C09091CE
:103A0000E80090FFFCCF982F907609F034C19E8992
:103A10004F89588D2F89F88C911131C0803861F50C
:103A2000809173028093F1001092F1008EEF8093E9
:103A3000E8006C960FB6F894DEBF0FBECDBFDF91E5
:103A4000CF91FF91EF91BF91AF919F918F917F9116
:103A50006F915F914F913F912F911F910F91FF9027
:103A6000EF90DF90CF900F900FBE0F901F901895A2
:103A70009EEF9093E800C7CF1092F100D5CF913020
:103A800059F48111D3CF4130510581F680917302F1
:103A90008D7F80937302CACF933049F48111C6CFD2
:103AA0004130510519F6809173028260F2CF953052
:103AB00041F48091E80080FFFCCF20682093E30070
:103AC000B5CF963009F0A9C00B8D1C8D22E0109265
:103AD000E90010926F0210926E02F2122EC0109244
:103AE0006D0210926C020E9423031F8299E0998359
:103AF000FA8291E09E8390EA98879AEF99872091C5
:103B00006E0230916F02275F3F4F3C832B838D8382
:103B10001092E90010926F0210926E0210936D02E3
:103B200000936C0249E050E0BE016F5F7F4F80E080
:103B30000E949E020E94230379CF10936D0200938E
:103B40006C020E940F03DC0112960D911C9101156D
:103B5000110509F451C1D801ED91FC910480F58162
:103B6000E02DBE016B5E7F4FC8010995009709F0FB
:103B70003EC1F80100851185EACFF3E0FF120EC0C7
:103B80008F89882309F440C0823061F440E860E105
:103B900080E991E00E946B02811148CF81E280931D
:103BA000EB0047CF813029F440E86BE084E891E0F6
:103BB000F1CF833099F70E940F03DC011296ED904C
:103BC000FC908E010F5F1F4F6801E114F10479F042
:103BD000D701ED91FC910680F781E02DB801C70176
:103BE0000995080F111DF701E084F184EECFD8018B
:103BF0001C92F60101900020E9F73197BF016C1982
:103C00007D0940E0C601C6CF6EE671E0FB0144913C
:103C100050E080E80E949E0209CF973009F4BECFA1
:103C2000983021F481E08093F10000CF993009F0C1
:103C3000FDCE837009F0B2CFE3E0F1E081E031E046
:103C400096E32191222371F08093E9003093EB00F9
:103C5000DF0111972C912093EC009093ED008F5F82
:103C6000873079F78EE78093EA001092EA008F8917
:103C70008093BC02DBCE8B8D9C8D1092E90010925C
:103C80006F0210926E0290936D0280936C02898D88
:103C9000811192C08E899D89913A49F4813209F04F
:103CA0007DCF47E050E06DE071E080E0B3CF91322E
:103CB00009F074CF833269F48F89988DB0E0A0E069
:103CC0008093090190930A01A0930B01B0930C011A
:103CD000ADCE803269F48091E80082FFFCCF67E0CE
:103CE0008DE091E00E94D5028BEF8093E8009ECE9C
:103CF000823209F09BCE8F8980931401EEEFFFE7AB
:103D0000859194918B3F9C4D51F1E0E0F8E08091DA
:103D10000D0190910E01A0910F01B0911001803B17
:103D20009440A105B105F1F48091140180FD1AC001
:103D3000EE3F8AE0F80789F587E797E7918380836C
:103D4000809160008093700288E19BE00FB6F89448
:103D5000A895809360000FBE9093600067CEEEEF51
:103D6000FAE0D5CF808191818737974709F05ECE01
:103D7000A8958091600088618093600080917002B6
:103D800080936000EE3F2AE0F20789F08091FE0AFE
:103D90009091FF0A9183808349CE808191818737FA
:103DA000980751F29093FF0A8093FE0AC5CF1092B4
:103DB000FF0A1092FE0A3ACE0E940F03DC0112960F
:103DC0000D911C910115110509F4E8CED801ED9172
:103DD000FC910190F081E02DBE016B5E7F4FC80128
:103DE0000995811123CEF80100851185EBCF1816B6
:103DF00019060CF41BCED2CEF1E0FF12BECE62E764
:103E000071E004CF1F920F920FB60F9211242F93DF
:103E10003F938F939F93AF93BF938091580290915C
:103E20005902A0915A02B0915B023091570223E0EF
:103E3000230F2D3758F50196A11DB11D2093570270
:103E40008093580290935902A0935A02B0935B0258
:103E500080915C0290915D02A0915E02B0915F0240
:103E60000196A11DB11D80935C0290935D02A09309
:103E70005E02B0935F02BF91AF919F918F913F918E
:103E80002F910F900FBE0F901F90189526E8230FCB
:103E90000296A11DB11DD2CF1F920F920FB60F92A5
:103EA00011242F933F934F935F936F937F938F933F
:103EB0009F93AF93BF93EF93FF938091B900887F57
:103EC000803609F44AC0F0F5883209F4A7C018F525
:103ED000803109F49BC0B8F4882309F4F9C0883014
:103EE00009F494C0FF91EF91BF91AF919F918F9191
:103EF0007F916F915F914F913F912F910F900FBEE6
:103F00000F901F901895883109F488C0803251F7BE
:103F10008093030314C0803409F49DC040F48033BF
:103F2000B9F38833F9F68093030385ECB0C080358C
:103F300009F485C0883509F496C0883499F60E9442
:103F4000FC05D0CF883909F48CC038F5883729F0C2
:103F500050F4883611F0803729F683E0809305030A
:103F60001092560257C0883809F47BC0803919F086
:103F7000803809F0B7CF80915602803208F071C0C6
:103F8000E091560281E08E0F809356028091BB0033
:103F9000F0E0EA5CFD4F80833DC0803B39F0E0F407
:103FA000803A09F479C0883A09F09CCF84E0809384
:103FB00005031092350210923402E0917802F091DC
:103FC000790209958091340281110FC081E08093BC
:103FD00034021092140209C0803C09F4A6CF883C38
:103FE00009F4A3CF883B09F07DCFE091350281E051
:103FF0008E0F80933502F0E0EC5EFD4F8081809360
:10400000BB00909135028091340229C08091E0027A
:104010008093BB0085EC8093BC0064CF9091020339
:1040200080910103981758F5E091020381E08E0F0B
:1040300080930203F0E0EF51FD4F8081E9CFE091E2
:10404000020381E08E0F809302038091BB00F0E0B9
:10405000EF51FD4F808390910203809101039817E7
:10406000C8F285E8D8CFE091020381E08E0F8093FB
:1040700002038091BB00F0E0EF51FD4F80838091FF
:10408000040381115CCF81E08093DF0284EA809396
:10409000BC001092050326CF85EC8093BC001092E3
:1040A000050380915602803230F4E0915602F0E030
:1040B000EA5CFD4F10826091560270E0E09176025A
:1040C000F091770286E392E00995109256020ACFAA
:1040D0001092030334CFEF92FF920F931F93CF936D
:1040E000DF93CDB7DEB7C659D1090FB6F894DEBF5E
:1040F0000FBECDBF10923B0310923A0388EE93E0BF
:10410000A0E0B0E080933C0390933D03A0933E0376
:10411000B0933F032DE431E030933903209338030B
:104120002FEF3FEF309345032093440310928B030E
:1041300010928A0380938C0390938D03A0938E0337
:10414000B0938F038FE591E0909389038093880368
:104150001092BE031092BD038DE791E09093BC03D3
:104160008093BB038091B303811113C01092AE03FF
:104170001092AD0388E292E09093B0038093AF0376
:1041800086E390E09093B2038093B10381E0809343
:10419000B3038091A50381112CC011E01093980303
:1041A000109399038EE993E090939B0380939A0375
:1041B00010929D0310929C0381E791E090939503E8
:1041C000809394031092A00310929F031092A20375
:1041D0001092A1031093A3031093A40381EC809386
:1041E0009E030E940F0364E973E00E94540310933E
:1041F000A503E0919F03F091A003309709F0B5C1AA
:104200008DEA93E09093A00380939F038091A10394
:104210009091A2032091B1033091B203820F931FBA
:104220009093A2038093A10381E180931F04809364
:104230001E041092E9031092E8031092EC0310920E
:10424000F1031092F0038FEF93E09093F3038093C8
:10425000F2031092F5031092F4039093F703809306
:10426000F6031092F9031092F8039093FB038093E6
:10427000FA031092FD031092FC039093FF038093C6
:10428000FE031092010410920004909303048093A3
:104290000204109205041092040490930704809382
:1042A0000604109209041092080490930B04809362
:1042B0000A0410920D0410920C0490930F04809342
:1042C0000E04109211041092100490931304809322
:1042D0001204109215041092140490931704809302
:1042E0001604109219041092180490931B048093E2
:1042F0001A04F3E0F0931C0434E13093EB031092C2
:10430000ED038BE18093EE0322E02093EF0365E061
:10431000698381E08A8399E09B8374E07C83E1EA8E
:10432000ED838E8345E84F83F88769879A8749E153
:104330004B878C8749E24D873E8745E14F87188A36
:1043400045E2498B8A8B55E75B8B8C8B45E94D8B1E
:104350003E8B35E53F8B188E35E6398F1A8E31E866
:104360003B8F2C8F5D8F8E8F4F8F78A339A3FAA34D
:104370006BA38CA39DA38EA3F6E1FF2EFFA288A7BB
:1043800000E809A716E21AA7BFEFBBA7AFE7ACA7E3
:104390005DA7F0E1FEA74FA778ABE9AB1AAA9BABEC
:1043A00070E37CAB9DAB71E37EAB9FAB73E378AF07
:1043B00099AF74E37AAF3BAF2CAF70EC7DAF6EAFCB
:1043C0002FAF2196FFAE219722968FAF229723968B
:1043D0000FAF239724961FAF24972596BFAF25973D
:1043E0002696AFAF269727965FAF27972896FFAF01
:1043F000289729964FAF29972A968FAF2A972B9601
:10440000EFAF2B972C961FAE2C972D969FAF2D9725
:104410008BEB2E968FAF2E972F963FAF2F976096F0
:104420002FAF609761967FAF619762967FAF62977B
:1044300081E590E00E94222F7C0181E5FE0131960A
:10444000D70101900D928A95E1F787E090E00E94F4
:10445000222F8C01DC0111961C921E921396FC9265
:10446000EE92129781E590E015969C938E931497A7
:1044700016961C920E94D108FC01A385B485109762
:1044800009F07DC01487038785859685D801149629
:104490002D913C91820F931F968785879091EB0316
:1044A000892F869586958695977009F070C08093C0
:1044B000EC031091EC03812F90E00E94222F909347
:1044C000E9038093E80381E09091ED03911101C02D
:1044D00080E0165F810F80931D041092CF0310922D
:1044E000CE031092D1031092D0031092D3031092F6
:1044F000D2031092D5031092D4031092D7031092D6
:10450000D6031092D9031092D8031092DB031092B5
:10451000DA031092DD031092DC031092DF03109295
:10452000DE031092E1031092E0031092E303109275
:10453000E2038FEF9FEF9093E5038093E403909362
:10454000E7038093E60390E080E02091EC032817D6
:104550001906F9F0F4F0E091E803F091E903E80FAF
:10456000F91F10820196F1CFFC01808191810097A3
:10457000D9F78DEA93E09183808348CEDC018D9159
:104580009C9111970097D1F70D931C937DCF8F5F6E
:104590008ECFCA56DF4F0FB6F894DEBF0FBECDBF29
:1045A000DF91CF911F910F91FF90EF900895CF93DE
:1045B000DF9300D000D0CDB7DEB7789484B58260A9
:1045C00084BD84B5816084BD85B5826085BD85B5B7
:1045D000816085BD80916E00816080936E00109235
:1045E00081008091810082608093810080918100B0
:1045F0008160809381008091800081608093800041
:1046000080919100826080939100809191008160FF
:1046100080939100809190008160809390008091C0
:10462000C10084608093C1008091C100826080934A
:10463000C1008091C10081608093C1008091C3005E
:1046400081608093C3008091C00082608093C0002D
:104650008091C20081608093C20080917A00846062
:1046600080937A0080917A00826080937A008091B2
:104670007A00816080937A0080917A0080688093CC
:104680007A001092BC021092730210927202809112
:10469000D70081608093D70080EA8093D80089B5E5
:1046A000806189BD89B5826089BD09B400FEFDCFF6
:1046B00061E070E080E090E00E941A058091D800EF
:1046C0008F7C80618093D8008091E000807F809310
:1046D000E0008091E1008E7E8093E1008DE0809388
:1046E000E200559A209A5D9A62E081E10E94B90445
:1046F000198262E089810E94B90449814F5F498330
:104700004131B9F752E1598362E089810E94B904CD
:1047100089818F5F89838831B9F760E08AE00E94E0
:10472000B90460E08BE00E94B9046CE271E080E0C3
:1047300090E00E941A050E94FC131092B70281E0DB
:104740008093B6028093BA02109290021092750282
:10475000109282028AE00E94900421E0892B09F4E1
:1047600020E02093B9028BE00E94900421E0892B85
:1047700009F020E02093B8028091A402882319F068
:1047800081E0809375029091A902998381E090E085
:104790000E94DB2BA981AA2361F09091AA029923A0
:1047A00041F060E0813009F061E081E090E00E943A
:1047B0002E1881E090E00E94DB2B813011F4809371
:1047C0009002B091AB02B98382E090E00E94DB2BB3
:1047D0004981442341F060E0813009F061E082E0EA
:1047E00090E00E942E1882E090E00E94DB2B813046
:1047F00011F4809374028091B802811118C085E091
:1048000090E09A8389830E947E0A182F81110DC03F
:10481000A981BA811197BA83A983AB2BA1F762E072
:1048200070E080E090E00E941A051093B802809139
:10483000B9028823C1F045E050E05A8349830E94C1
:10484000BB09182F81110DC089819A8101979A8324
:104850008983892BA1F762E070E080E090E00E94FC
:104860001A051093B9028091B90281110EC080918E
:10487000B802882351F080917502882331F010929C
:10488000A302109282021092B602412C512C3201E6
:104890004A94FF24F39488248A94912C45E4B42EFE
:1048A00010E852E3D52E66E5362E7BEB272E89E005
:1048B0000E949004892B11F0F092BA028091BA0202
:1048C000882309F464C089E00E949004892B09F0D0
:1048D0005EC01092BA02789460E081E10E94B9044F
:1048E00064EF71E080E090E00E941A051092BE0231
:1048F0001092BD0210922703109226031092050316
:10490000F09204031092DF0282E00E946A0483E0C6
:104910000E946A048091B9008E7F8093B9008091D3
:10492000B9008D7F8093B90098E49093B800B0925D
:10493000BC00ABE3B2E0B0937902A09378024CE301
:1049400052E0509377024093760260EF85E50E9433
:10495000AC066BEF80E00E94AC060E9422176AE072
:1049600070E080E090E00E941A050E94221780917A
:104970002A03805880938F0280912C038058809363
:104980008E026AE070E080E090E00E941A0580915B
:10499000B8029091B902992309F4F6C0882309F46A
:1049A00027C30E94FC130E942A110E9451100E94EA
:1049B000140F0E94C60E8091A502882309F4A7C097
:1049C00064E387E30E94360D809189028823A9F071
:1049D00080917D0267E18111B1C08091AE02882390
:1049E00061F08091AF02811108C080917A0281113B
:1049F00004C060E08FE20E94360D80917F02811139
:104A00000E945C0E0E94CB0D0E945D0D89E00E9409
:104A10009004892B11F40E94F01780917C02882366
:104A200009F4AFC080917B02823070F49091B202A1
:104A3000992309F491C010939D0220929E02F09256
:104A400091028F5F80937B0290919D02905890938A
:104A50009D0280919E02805880939E029093200137
:104A60008093210180911E019091990290FB81F920
:104A700090919A0290FB80F990919B0290FB83F9B0
:104A800090919C0290FB82F99091980290FB84F99E
:104A900080931E012091960290919702211101C0EE
:104AA000292F80911E0120FB85F92091910220FB86
:104AB00087F92091920220FB86F980931E01809154
:104AC0001F01867F2091940220FB81F9209193029F
:104AD00020FB82F92091950220FB84F980931F012D
:104AE000992329F09091A50291119091A6028091AD
:104AF0001F0190FB85F980931F010E94BB0980E094
:104B000090E0892B09F4D3CE0E940000C7CE80919B
:104B1000A602882309F471CF6BE387E10E94360D6A
:104B200080918902882309F468CF80917D028111E8
:104B300064CF8091AF02882319F060E08BE35BCFF4
:104B40008091AE02882309F458CF80917A028111B6
:104B500054CF60E083E24FCF9091B302992329F0C4
:104B600010939D02B0929E026ACF9091B50210936D
:104B70009E02992319F020929D0261CFB0929D026E
:104B80005ECF10927B0260CF882309F431C20E946D
:104B9000FC138091A302811170C00E94761189E0FC
:104BA0000E949004892B41F40E94F0178091A30287
:104BB000811102C00E94421880919D0280933101B0
:104BC00080919E02809332018091A00280933301F4
:104BD00080919F028093340190912F0180919102E6
:104BE00080FB90F98091920280FB91F98091930271
:104BF00080FB92F98091940280FB93F980913001BF
:104C00002091950220FB84F92091960220FB86F9E1
:104C10002091970220FB85F92091A1022093360173
:104C20002091A202209335012091980220FB94F953
:104C300090932F019091990290FB80F990919A02A4
:104C400090FB81F990919B0290FB83F990919C02DB
:104C500090FB82F9809330018091B60281110E940D
:104C6000B30C80918202843009F09DC10E947E0ABB
:104C7000811145CF0E94B30C42CF0E942A110E949D
:104C800051108091900281110E947C0D8091A502AB
:104C9000E091840270918502609183029091860276
:104CA000882321F02091A6022111E4C010929B02DA
:104CB00010929C021092990210929A02A92FA71B9F
:104CC000BB0B9D01F0E5FA9F402D11244058409305
:104CD000A002AE2FA61BBB0BAF9F402D1124405846
:104CE00040939F02911102C07723D1F0E11118C0C7
:104CF000611116C090917E02992391F09091A602C5
:104D0000891B990B98E2899F802D112480588093EC
:104D10009F02B1E4B29F202D112420582093A002BD
:104D20000E94C60E8091A5029091A602882309F4E4
:104D3000C2C09111C0C063E385E30E94360D80912B
:104D40008A02882321F062E385E30E94360D809178
:104D50007D029091890291119AC08111A0C0409169
:104D60007F0249834423C1F08091A502882321F06A
:104D70009091A602911110C09091AB029111E2C0E6
:104D8000882309F4C7C080918602882309F4B1C042
:104D90006BE18BE40E94360D8091AB028823F9F021
:104DA000598151111CC08091AC0281111CC060E579
:104DB00080E50E94360D80918902882381F08091E0
:104DC0008B02882321F064E38CE30E94360D8091EE
:104DD0008A02882321F067E38AE30E94360D8091DE
:104DE000AC028823A1F080917E02811110C08091D5
:104DF000AB02811110C063E383E30E94360D809102
:104E0000AB02882321F060E580E50E94360D809199
:104E1000AB02882361F18091A502882321F066E22C
:104E200086E40E94360D8091A602882321F066E474
:104E300086E20E94360D8091AB028823C1F08091FA
:104E400089028823A1F080917D02882381F08091DE
:104E5000A50281110CC08091A602811108C0809129
:104E6000AF02882321F064E284E20E94360D0E94A2
:104E70005D0D95CEE0939B027093990260939C0226
:104E800090939A021093A00210939F0249CF882317
:104E900009F479C468E285E30E94360D60CF809101
:104EA000AE02811105C08091AF02882309F457CF6B
:104EB0006AE280E0F1CF992309F451CF81114FCFFD
:104EC00063E38AE10E94360D80918A02882321F0F3
:104ED00062E385E30E94360D80918902882309F4FC
:104EE0003ECF80917D02882309F459C463E387E2B1
:104EF000D3CF80918402882319F063E287E44ACFFC
:104F000080918502882319F06AE282E443CF61E34D
:104F10008DE340CF80918302882319F06DE381E314
:104F200039CF80918502882319F062E48AE232CF7A
:104F300080918402882319F067E483E22BCF6BE42D
:104F40008BE128CF8823C1F080918602882319F055
:104F500061E180E31FCF80918402882319F067E12B
:104F60008EE218CF80918502882319F06BE18BE2E5
:104F700011CF60E288E20ECF80918302882319F07E
:104F800068E280E207CF80918502882311F06BE20E
:104F9000D7CF80918402882319F06EE287E1FACEA0
:104FA00062E38FE0F7CE0E947E0A809180029091AA
:104FB00081029A838983892B09F4A1CD89E00E941B
:104FC0009004A981BA81892B21F4AC5DB540BA83E4
:104FD000A983A230B10508F492CDAA0FBB1FAA0F76
:104FE000BB1F1597BA83A983CD010197F1F787CD30
:104FF0000E94FC138091B702823031F00E942A1186
:105000000E9451100E94C60EA090AD02C090AC024A
:10501000E090AB020091AE022091AF024091B0024D
:105020006091B1028091A4020E94F20AA090B502A0
:10503000C090B402E090A6020091A5022091A902BE
:105040004091AA026091A8028091A7020E94F20AF0
:10505000A12CC12CE12C00E020E040E06091B302E3
:105060008091B2020E94F20A6AE088E393E00E9413
:105070009C038091B6028823D9F08091A50281110A
:10508000F092B7028091A602882319F082E0809303
:10509000B7028091B702823009F014C18BEB93E024
:1050A0000E949F148BEB93E00E94D9071092B602E6
:1050B0008091B702813009F08CC1809190028111FA
:1050C0000E947C0D19828091EB039981981718F446
:1050D000892F0E940017A981AF5FA983A43199F796
:1050E00089E00E949004892B09F019C10E942217BF
:1050F00080918E0220912C0330912D03281B3109C1
:10510000A9E8BEEF0E94FF2EA30192010E94F12B9D
:10511000DA01C901855C9E4FAF4FBF4F89839A83E7
:10512000AB83BC8380918F02A0912A03B0912B03A3
:10513000A81BB10927E731E00E94072FA3019201C4
:105140000E94F12B2C533109410951093093CF03AF
:105150002093CE038091EA0381110E944315A98117
:10516000BA81B093D103A093D0038091EA03811157
:105170000E94431580918D02882319F08CE00E94D3
:10518000DB1680918C02882319F08DE00E94DB16DB
:1051900080918B02882319F08EE00E94DB168091AB
:1051A0008A02882319F08FE00E94DB168091A50205
:1051B000882319F080E10E94DB168091A6028823E3
:1051C00019F081E10E94DB16809134039091350340
:1051D000892B19F085E00E94DB16809136039091AF
:1051E0003703892B19F085E00E94DB168091AE020F
:1051F000882319F080E00E94DB168091AF0288239B
:1052000019F082E00E94DB168091B002882319F029
:1052100083E00E94DB168091B102882319F083E0BD
:105220000E94DB168091AD02882319F084E00E9471
:10523000DB168091AB02882319F085E00E94DB1613
:105240008091A402882319F089E00E94DB168091E6
:10525000AC02882319F086E00E94DB16809186025A
:1052600090918502891B990B01969695982F882716
:10527000979587959093D5038093D4038091EA0303
:1052800081110E9443152091840280918302281B82
:10529000330B1203C001139F900D112480589F4FB0
:1052A0009093D7038093D6038091EA0381110E94E3
:1052B00043150E94431564E070E080E090E00E9496
:1052C0001A051DCC1092EA030E9443151092F103B7
:1052D0001092F0039092F3038092F2031092F50380
:1052E0001092F4039092F7038092F60310920D044B
:1052F00010920C0490920F0480920E041092FD0301
:105300001092FC039092FF038092FE03109201041E
:10531000109200049092030480920204C7CE809100
:10532000A6029091A502992309F427C2811149C0D0
:1053300080918B02882309F43FC0809189028111FA
:105340003BC03092880220918D0280918C02281BF4
:10535000330B40918702429FC001439F900D11245F
:1053600080589F4F9093CF038093CE038091EA03A0
:1053700081110E94431540918B0280918A02481B43
:10538000550B8091880290E0919581959109489FF5
:105390009001499F300D589F300D112420583F4FE8
:1053A0003093D1032093D0038091EA03882309F43A
:1053B0001DCF0E9443151ACF30928702D0928802E7
:1053C000C2CFD0928702FACF10938702109388023F
:1053D000BACF823009F013C18091AE0261E7882311
:1053E00009F4B3C08BEB93E00E94F6148091AF02F6
:1053F0006AE6882309F4AEC08BEB93E00E94F614B2
:105400008091B0026BE6882309F4A9C08BEB93E08E
:105410000E94F6148091B10269E6882309F4A4C0C1
:105420008BEB93E00E94F6148091AD026CE688232A
:1054300009F49FC08BEB93E00E94F6148091AB02BD
:1054400061E6882309F49AC08BEB93E00E94F6147E
:105450008091AC0268E6882309F495C08BEB93E059
:105460000E94F6148091A40267E6882309F490C094
:105470008BEB93E00E94F6148091B4026FE68823D0
:1054800009F48BC08BEB93E00E94F6148091B2027A
:105490006EE6882309F486C08BEB93E00E94F61435
:1054A0008091B50260E7882309F481C08BEB93E01B
:1054B0000E94F6148091B30262E7882309F47CC04D
:1054C0008BEB93E00E94F6148091AA0264E6882395
:1054D00009F477C08BEB93E00E94F6148091A90247
:1054E00062E6882309F472C08BEB93E00E94F61405
:1054F0008091A7026DE6882309F46DC08BEB93E0E1
:105500000E94F6148091A80263E6882309F468C01B
:105510008BEB93E00E94F6148091A50265E6882348
:1055200009F463C08BEB93E00E94F6148091A6020D
:1055300066E6882309F45EC08BEB93E00E94F614C4
:105540008BEB93E00E94D907B6CE8BEB93E00E94E1
:1055500003154CCF8BEB93E00E94031551CF8BEBDF
:1055600093E00E94031556CF8BEB93E00E94031546
:105570005BCF8BEB93E00E94031560CF8BEB93E046
:105580000E94031565CF8BEB93E00E9403156ACF51
:105590008BEB93E00E9403156FCF8BEB93E00E949F
:1055A000031574CF8BEB93E00E94031579CF8BEB3F
:1055B00093E00E9403157ECF8BEB93E00E940315CE
:1055C00083CF8BEB93E00E94031588CF8BEB93E0A6
:1055D0000E9403158DCF8BEB93E00E94031592CFB1
:1055E0008BEB93E00E94031597CF8BEB93E00E9427
:1055F00003159CCF8BEB93E00E940315A1CF19827A
:105600008091EB03B981B81718F48B2F0E94001713
:1056100049814F5F49834C3099F70E94761189E0A8
:105620000E949004892B41F40E94F0178091A302FC
:10563000811102C00E94421880919D0290E09093D7
:10564000CF038093CE038091EA0381110E9443151A
:1056500080919E0290E09093D1038093D00380913B
:10566000EA0381110E9443158091A00290E090937B
:10567000D5038093D4038091EA0381110E944315DE
:1056800080919F0290E09093D7038093D6038091FE
:10569000EA0381110E9443158091A20290E0909349
:1056A000DB038093DA038091EA0381110E944315A2
:1056B00080919102882319F080E00E94DB1680918E
:1056C0009202882319F081E00E94DB1680919302F8
:1056D000882319F082E00E94DB16809194028823CF
:1056E00019F083E00E94DB1680919502882319F05F
:1056F00084E00E94DB1680919602882319F085E0F1
:105700000E94DB1680919702882319F086E00E94A0
:10571000DB1680919802882319F087E00E94DB163F
:1057200080919902882319F088E00E94DB1680910D
:105730009B02882319F089E00E94DB1680919A026F
:10574000882319F08AE00E94DB1680919C0288234E
:1057500019F08BE00E94DB160E94431589E00E943D
:105760009004892B29F465E070E080E090E0A7CDFB
:1057700067E070E080E090E0A2CD882309F424CEB9
:10578000D0928702DECD8091AE02811105C080915A
:10579000AF02882309F4E3CA60E08FE27DCB8091F9
:1057A000AE02811105C08091AF02882309F4D7CAE7
:1057B00060E089E271CBF999FECF92BD81BDF89A84
:1057C000992780B50895262FF999FECF1FBA92BD6B
:1057D00081BD20BD0FB6F894FA9AF99A0FBE0196D2
:1057E0000895052E97FB1EF400940E94082C57FD87
:1057F00007D00E941B2C07FC03D04EF40C94082CFD
:1058000050954095309521953F4F4F4F5F4F0895EC
:1058100090958095709561957F4F8F4F9F4F08951C
:105820000E943D2CA59F900DB49F900DA49F800DCC
:10583000911D11240895A1E21A2EAA1BBB1BFD0184
:105840000DC0AA1FBB1FEE1FFF1FA217B307E4075F
:10585000F50720F0A21BB30BE40BF50B661F771FB7
:10586000881F991F1A9469F7609570958095909597
:105870009B01AC01BD01CF010895A29FB001B39F70
:10588000C001A39F700D811D1124911DB29F700D49
:10589000811D1124911D08955058BB27AA270E94ED
:1058A000642C0C94DE2D0E94D02D38F00E94D72D50
:1058B00020F039F49F3F19F426F40C94CD2D0EF40A
:1058C000E095E7FB0C94C72DE92F0E94EF2D58F3CC
:1058D000BA17620773078407950720F079F4A6F5D5
:1058E0000C94112E0EF4E0950B2EBA2FA02D0B0167
:1058F000B90190010C01CA01A0011124FF27591B15
:1059000099F0593F50F4503E68F11A16F040A22F1A
:10591000232F342F4427585FF3CF4695379527958B
:10592000A795F0405395C9F77EF41F16BA0B620B8A
:10593000730B840BBAF09150A1F0FF0FBB1F661FD1
:10594000771F881FC2F70EC0BA0F621F731F841F14
:1059500048F4879577956795B795F7959E3F08F03A
:10596000B0CF9395880F08F09927EE0F97958795FC
:1059700008950E94A32D08F481E008950E94D22C7E
:105980000C94DE2D0E94D72D58F00E94D02D40F0AF
:1059900029F45F3F29F00C94C72D51110C94122E5D
:1059A0000C94CD2D0E94EF2D68F39923B1F355236C
:1059B00091F3951B550BBB27AA2762177307840722
:1059C00038F09F5F5F4F220F331F441FAA1FA9F3B8
:1059D00035D00E2E3AF0E0E832D091505040E695A6
:1059E000001CCAF72BD0FE2F29D0660F771F881F07
:1059F000BB1F261737074807AB07B0E809F0BB0BFA
:105A0000802DBF01FF2793585F4F3AF09E3F51050D
:105A100078F00C94C72D0C94122E5F3FE4F3983E5F
:105A2000D4F3869577956795B795F7959F5FC9F7F6
:105A3000880F911D9695879597F90895E1E0660F77
:105A4000771F881FBB1F621773078407BA0720F0F0
:105A5000621B730B840BBA0BEE1F88F7E095089559
:105A60000E94372D6894B1110C94122E08950E9453
:105A7000F72D88F09F5798F0B92F9927B751B0F0BC
:105A8000E1F0660F771F881F991F1AF0BA95C9F7C2
:105A900014C0B13091F00E94112EB1E008950C9421
:105AA000112E672F782F8827B85F39F0B93FCCF3D4
:105AB000869577956795B395D9F73EF4909580953F
:105AC000709561957F4F8F4F9F4F0895E89409C05F
:105AD00097FB3EF490958095709561957F4F8F4F21
