:100000000C9430010C9458010C9458010C94580134
:100010000C9458010C9458010C9458010C945801FC
:100020000C9458010C9458010C94721D0C94E11D11
:100030000C9458010C9458010C9458010C945801DC
:100040000C9458010C9458010C9458010C945801CC
:100050000C9458010C9458010C9458010C941320E2
:100060000C9458010C9458010C9458010C945801AC
:100070000C9458010C9458010C9458010C9458019C
:100080000C9458010C9458010C9458010C9458018C
:100090000C945D200C9458010C9458010C94580158
:1000A0000C9458010C9458010C9458010000000065
:1000B000000000002A2B28000000000000000000C3
:1000C0000000000000000000000000002C9EB4A012
:1000D000A1A2A434A6A7A5AE362D3738271E1F200F
:1000E000212223242526B333B62EB7B89F848586D4
:1000F0008788898A8B8C8D8E8F9091929394959618
:100100009798999A9B9C9D2F3130A3AD3504050695
:100110000708090A0B0C0D0E0F10111213141516F7
:100120001718191A1B1C1DAFB1B0B500080B00023F
:10013000020201000904000001020200000524007F
:100140001001052401010104240206052406000112
:100150000705810310004009040100020A000000A5
:100160000705020240000007058302400000040367
:10017000090412010002EF02014041233680000110
:100180000102030141726475696E6F204C4C43009B
:1001900041726475696E6F204C656F6E6172646F39
:1001A000000000000200090F0000030401000C0021
:1001B000000000000000000000000000000000003F
:1001C000000000002300260029002C002F00000062
:1001D0000000250028002B002E0031000000000048
:1001E000240027002A002D00300004040404040326
:1001F00004050202020204030202020206060606C7
:1002000006060404020202040404080201104080ED
:1002100040102040804080080204018040201002ED
:10022000011080102040402005010906A101850829
:10023000050719E029E715002501750195088102D8
:10024000190029671500250175019568810295013E
:100250007508150026E700190029E78100C07C21F8
:1002600011241FBECFEFDAE0DEBFCDBF11E0A0E06A
:10027000B1E0E2EAF4E602C005900D92AC38B107B5
:10028000D9F724E0ACE8B1E001C01D92A632B20774
:10029000E1F711E0C0E3D1E004C02197FE010E9424
:1002A000F830CF32D107C9F70E94E8230C944F32BF
:1002B0000C9400000F93CF93DF93FA01DB014C9174
:1002C000502F509554235C935081502B5083FC0148
:1002D00093E0E90148E080E060E050E0788170233D
:1002E00089F05A95D9F750E07881702359F05A95E2
:1002F000D9F750E87881702329F05A95D9F76A9593
:1003000061F717C077E07A95F1F7000061E0AA0F76
:100310007881702309F0A1604A9529F4A19383950F
:1003200048E0981731F050E87881702311F75A951A
:10033000D9F7DF91CF910F910895FB01811110C082
:100340008081882379F010820895808181110AC00C
:1003500081E080838EE090E0F901918380830895AD
:10036000442399F30895CF92DF92EF92FF920F9377
:100370001F93CF93DF93D901E8016A01F901421776
:10038000530714F06901FA01882309F440C0CB0136
:100390006C157D050CF4C6019F018E179F070CF4A8
:1003A0009C01A417B50734F4CF01821B930B9C0169
:1003B0002C0D3D1D0D2C000CEE08FF08032E000C2B
:1003C000440B550B2C193D094E095F09AEEFBFEFE9
:1003D0000E940F2E9F01FF0F440B550B2C193D0956
:1003E0004E095F090E94F02DDA01C9018F5F9F4716
:1003F000A109B1098883998382E090E0DF91CF91D0
:100400001F910F91FF90EF90DF90CF90089590E0B3
:1004100080E0F4CF8091BF029091C002891B990BBC
:100420000895FC018091BE02882311F13FB7F89432
:1004300082E08093E9002091F200822F90E018166C
:10044000190614F481E090E0882339F0289844E6F6
:100450004093BD024091F1004083222339F0209166
:10046000F200211103C02BE62093E8003FBF08955E
:100470008FEF9FEF08950895089540916E02509177
:100480006F0220916C0230916D0242175307B4F451
:100490009091E8009570E1F39091E80092FD19C009
:1004A0008093F10080916E0290916F0201968F739C
:1004B0009927892B19F48EEF8093E80080916E02C2
:1004C00090916F02019690936F0280936E0281E08B
:1004D000089580E00895EF92FF920F931F93CF93BA
:1004E000DF93F82E192FE62E042F81E0860F880F58
:1004F0000E943D0283E00E943D02CF2DD12FEC0EE1
:10050000FD2EF11CCE15DF05B9F007FF13C0FE016B
:1005100084910E943D02182F80E00E943D028123B9
:1005200021968111EFCFDF91CF911F910F91FF9015
:10053000EF9008958881EDCF81E0F5CFDF92EF92C3
:10054000FF920F931F93CF93DF93D82E8A01EB0175
:100550007B01E40EF51ECE15DF0559F0D7FE12C063
:10056000FE0184910E943D0221968111F4CF0FEF8C
:100570001FEFC801DF91CF911F910F91FF90EF9076
:10058000DF9008958881EECF2FB7F894877080931D
:10059000E9009091E800892F807295FF04C0909146
:1005A000F20080E4891B2FBF0895615030F0209144
:1005B000F100FC0120830196F8CF289884E680930F
:1005C000BD020895AF92BF92CF92DF92EF92FF9259
:1005D0000F931F93CF93DF936C017B018B01040F6B
:1005E000151FEB015E01AE18BF08C017D10759F007
:1005F0006991D601ED91FC910190F081E02DC60149
:100600000995892B79F7C501DF91CF911F910F9142
:10061000FF90EF90DF90CF90BF90AF9008958091C2
:10062000640281110DC082E08093600284E08093B7
:100630006102109263021092620281E08093640270
:1006400080E692E008950F931F93CF93DF931F925C
:10065000CDB7DEB782E0898342E450E06CE271E01E
:1006600080E80E949E020E940F03DC0112960D9109
:100670001C910115110589F0D801ED91FC910280C2
:10068000F381E02DBE016F5F7F4FC801099597FD93
:1006900004C0F80100851185ECCF89810F90DF91AE
:1006A000CF911F910F910895CF93DF93FC01DB0150
:1006B000818114963C911497682F630F7727771FD9
:1006C000683071059CF5C281D381209739F5B383D9
:1006D000A283908112969C93129713968C931397F2
:1006E00015968C911597890F808390E080E0831791
:1006F00008F52181C22FD0E0BE016E5F7E4F1696B5
:100700004D915C911797480F591FEA014881EB0101
:1007100048832F5F21830196EACFEA0148855985F6
:1007200041155105D1F7B987A887D3CF80E0DF9174
:10073000CF91089581E0FBCFCF93DF931F92CDB788
:10074000DEB76983DC01ED91FC910280F381E02D3D
:1007500041E050E0BE016F5F7F4F09950F90DF9140
:10076000CF91089583E08093E9008091F20088237F
:1007700019F08AE38093E800089583E00E94C402A0
:1007800090E00895CF93DF931F92CDB7DEB7FC01C1
:100790008485958597FD08C02FEF3FEF3587248727
:1007A0000F90DF91CF910895CE0101960E94110222
:1007B000019719F4898190E0F3CF8FEF9FEFF0CF8D
:1007C0000F931F93CF93DF931F92CDB7DEB78C01AA
:1007D000FC018485958597FF0BC0CE0101960E9490
:1007E0001102019771F4898190E0F801958784875F
:1007F000F801848595850F90DF91CF911F910F911E
:1008000008958FEF9FEFF1CFFC018485958597FDCB
:100810000BC09FB7F89482E08093E9008091F200CA
:100820009FBF90E0019608959FB7F89482E080936F
:10083000E9008091F2009FBF90E0089581508F30D1
:1008400008F047C0E82FF0E0E85DFB4F0C94F8306B
:100850004504490437043D044104690469046904FA
:100860004C04520456045A046004690464048091E0
:1008700080008F77809380000895809180008F7D25
:10088000F9CF80918000877FF5CF84B58F7784BDC5
:10089000089584B58F7DFBCF809190008F778093F2
:1008A00090000895809190008F7DF9CF8091900005
:1008B000877FF5CF8091C0008F778093C000089527
:1008C0008091C0008F7DF9CF8091C200877F809397
:1008D000C2000895CF93DF93282F30E0F901EF5540
:1008E000FE4F8491F901E75FFD4FD491F901E65184
:1008F000FE4FC491CC2389F081110E941E04EC2F7D
:10090000F0E0EE0FFF1FE253FE4FA591B4918FB7B9
:10091000F894EC91DE2BDC938FBFDF91CF9108959B
:10092000CF93DF93282F30E0F901EF55FE4F8491EC
:10093000F901E75FFD4FD491F901E651FE4FC491F3
:10094000CC23A1F081110E941E04EC2FF0E0EE0FE9
:10095000FF1FE054FE4FA591B491EC91ED2381E08F
:1009600090E009F480E0DF91CF91089580E090E07D
:10097000FACFCF93DF9390E0FC01E75FFD4F249126
:1009800086519E4FFC0184918823C9F090E0880F26
:10099000991FFC01E452FE4FA591B491FC01E25372
:1009A000FE4FC591D49161110DC09FB7F8948C9101
:1009B000209582238C938881282328839FBFDF91F1
:1009C000CF910895623051F49FB7F8943C91822FF3
:1009D000809583238C93E8812E2BEFCF8FB7F894EB
:1009E000EC912E2B2C938FBFEACF3FB7F8948091D8
:1009F0005C0290915D02A0915E02B0915F0226B50B
:100A0000A89B05C02F3F19F00196A11DB11D3FBF46
:100A1000BA2FA92F982F8827BC01CD01620F711D15
:100A2000811D911D42E0660F771F881F991F4A950F
:100A3000D1F708958F929F92AF92BF92CF92DF929B
:100A4000EF92FF924B015C010E94F5046B017C0167
:100A50000E94F5046C197D098E099F09683E734058
:100A600081059105A8F321E0821A9108A108B10837
:100A700088EEC80E83E0D81EE11CF11C811491049D
:100A8000A104B10429F7FF90EF90DF90CF90BF90C1
:100A9000AF909F908F9008957F928F929F92AF9288
:100AA000BF92CF92DF92EF92FF920F931F93CF935B
:100AB000DF93C82E8B017A018091BE02811110C094
:100AC0008FEF9FEFDF91CF911F910F91FF90EF90EC
:100AD000DF90CF90BF90AF909F908F907F900895C0
:100AE0008091720280FF05C08091E0008260809357
:100AF000E000CE2DDF2DD12C8AEFB82E8C2D877003
:100B0000982E8C2D8072882E8C2D8074782E9AE3EE
:100B1000A92E209719F4DD2009F452C08C2D0E94D3
:100B2000C40281110AC0BA94BB2051F261E070E0A6
:100B300080E090E00E941A05ECCF8C171D0611F0A2
:100B40000CF08C2F9FB7F8949092E9002091E80068
:100B500025FD02C09FBFDDCF282F30E0C21BD30B85
:100B6000882029F08150A0F01092F100FBCFF8010D
:100B7000C7FC0AC0815050F041914093F100FACF78
:100B800044914093F10031968150D0F7020F131F2A
:100B9000DD2021F0A092E800D12CDCCF8091E8008C
:100BA00085FD07C0A092E800DD24D394209791F240
:100BB000F3CF209779F6772069F2A092E800CACFA8
:100BC0005D9884E680937102C7017CCFCF93DF9359
:100BD000EC0180911401882331F083E00E944C05E0
:100BE0001816190634F081E090E09B838A8380E038
:100BF00090E0DF91CF91089585ED8093BC008091C6
:100C0000BC0084FDFCCF10920703089520913402AC
:100C1000260F3327331F21323105ECF420910703CF
:100C2000FC0190E080E0243069F082E00895A0911A
:100C300034022191AC014C5E5D4FA40FB52FB11D64
:100C40002C930196861798F380913402680F609375
:100C5000340280E0089581E008950895E091C00293
:100C60008091BF02E81730F4F0E0EF53FD4F808130
:100C700090E008958FEF9FEF08959091C0028091CA
:100C8000BF022FEF3FEF981748F4E92FF0E0EF5342
:100C9000FD4F208130E09F5F9093C002C90108950D
:100CA000CF92DF92EF92FF920F931F93CF93DF9338
:100CB0007C01CB018A0120912B03222389F0EB01D7
:100CC0006B01C40ED51ECC15DD0569F06991D70105
:100CD000ED91FC910190F081E02DC7010995F3CFD2
:100CE000642F0E940606C801DF91CF911F910F91DA
:100CF000FF90EF90DF90CF900895CF93DF931F92F6
:100D0000CDB7DEB7698320912B032223F9F0209120
:100D10002803203258F021E030E0FC0133832283A5
:100D200090E080E00F90DF91CF91089580912903AA
:100D3000E82FF0E0E85FFC4F998190838F5F80930C
:100D400029038093280381E090E0ECCF61E0CE019D
:100D500001960E940606F7CFCF93C82F81E08093BB
:100D60002B0382E580932A03109229031092280313
:100D70008AE893E00E947D066C2F8AE893E00E9447
:100D80007D06909128039132F0F58091070381113F
:100D9000FCCF82E08093070381E0809306038FEF0E
:100DA000809305031092040390930303E8E0F3E0BB
:100DB000A3EEB2E080E098132EC01092E202809180
:100DC000E202846A8093E2028091E102813039F587
:100DD0001092E1028091E2028093BB008091BC00FE
:100DE00083FDF8CF85EC8093BC00809107038230AF
:100DF000E1F3809105038F3F31F08091050380324C
:100E000011F080910503109229031092280310928B
:100E10002B03CF91089521912D938F5FCCCF85EE39
:100E2000E2CFDC01FB0191818081813A31F49D7F29
:100E300081E0913009F080E008958132E1F79B3044
:100E400029F482811F968C9381E008959A3099F756
:100E5000828150968C93F8CFFC014281FB01248162
:100E600035814217130611F40C94110780E00895A0
:100E7000DC01FB0188E4808389E4818384E482834C
:100E80001D969C911D979F709F5B93831D968D91DE
:100E90009C9124E0969587952A95E1F78F708F5B5A
:100EA000848385E00895EF92FF920F931F93CF9371
:100EB000DF93FB012081213871F52381223259F51E
:100EC000DC0112964C91248135814217130619F5E5
:100ED000EC010B851C85F12CE12C0115110589F025
:100EE000F801448155816281738180E80E949E02ED
:100EF0008F3F980749F0E80EF91ED8010D911C911B
:100F0000ECCF81E08F87C701DF91CF911F910F91C7
:100F1000FF90EF90089590E080E0F6CFCF93DF93BD
:100F2000CDB7DEB769970FB6F894DEBF0FBECDBF61
:100F3000FC01DB018C918F5F8C939E012D5F3F4FF5
:100F40008DE0D9011D928A95E9F729E0298384E093
:100F50008A8391E09D8383E08E832A8721E22B8719
:100F60009C879D879F8722E2288B27E02B8B25E09B
:100F70002C8B8E8B20E430E0388F2F8B998F8281E1
:100F80008B8395858685998B8A8B838180688D8BF1
:100F900049E150E0BE016F5F7F4F80E00E949E02FA
:100FA00069960FB6F894DEBF0FBECDBFDF91CF912B
:100FB0000895EF92FF920F931F93CF93DF931F92A9
:100FC000CDB7DEB77C018091A70381112CC011E061
:100FD00010939A0310939B0380EA93E090939D03F0
:100FE00080939C0310929F0310929E0381E791E0EF
:100FF00090939703809396031092A2031092A103FB
:101000001092A4031092A3031093A5031093A603B8
:1010100081EC8093A0030E940F0366E973E00E94B5
:1010200054031093A70388E0898341E050E0BE0198
:101030006F5F7F4F809199030E944C058C0197FD53
:101040000EC0B7016C5F7F4F809199034FE050E075
:1010500080640E944C05080F191F97FD8C01C80180
:101060000F90DF91CF911F910F91FF90EF90089516
:10107000089590E080E00895FC014281FB01248105
:1010800035814217130611F40C94110780E008957E
:10109000EF92FF920F931F93CF93DF93FB01208179
:1010A000213889F52381223271F5DC0112964C91A9
:1010B000248135814217130631F58C01FC01C3856B
:1010C000D485F12CE12C209791F04C815D816A81CF
:1010D0007B818E81811180E80E949E028F3F98075C
:1010E00059F0E80EF91E0990D881C02DECCF81E0AF
:1010F000D8011F968C93C701DF91CF911F910F915B
:10110000FF90EF90089590E080E0F6CFCF93DF93CB
:10111000CDB7DEB769970FB6F894DEBF0FBECDBF6F
:10112000FC01DB018C918F5F8C939E012D5F3F4F03
:101130008DE0D9011D928A95E9F729E0298384E0A1
:101140008A8391E09D8383E08E832A8721E22B8727
:101150009C879D879F8722E2288B27E02B8B25E0A9
:101160002C8B8E8B20E430E0388F2F8B998F8281EF
:101170008B8395858685998B8A8B838180688D8BFF
:1011800049E150E0BE016F5F7F4F80E00E949E0208
:1011900069960FB6F894DEBF0FBECDBFDF91CF9139
:1011A0000895CF9380910C0281112CC0C1E0C093AF
:1011B000FF01C093000285E092E0909302028093C9
:1011C0000102109204021092030281E491E09093D4
:1011D000FC018093FB01109207021092060210920C
:1011E000090210920802C0930A02C0930B0281EC1C
:1011F000809305020E940F036BEF71E00E9454037D
:10120000C0930C028BEF91E0CF9108950F931F9341
:10121000F9012081202B2083DA012C91202B2C93A3
:1012200020814081202B30E010E00095109550E0A7
:1012300004231523DC015D9148E00083550F40F441
:1012400074E07A95F1F720837AE07A95F1F705C09A
:101250007EE07A95F1F7000020834A9529F073E04B
:101260007A95F1F70000E9CF6A9529F071E07A9557
:10127000F1F70000E0CF72E07A95F1F7000000008E
:10128000008374E07A95F1F70000000020831F913D
:101290000F9108956F927F928F929F92AF92BF921B
:1012A000CF92DF92EF92FF920F931F93CF93DF9332
:1012B00000D01F92CDB7DEB76B017A0190E0FC0140
:1012C000E75FFD4F149186519E4FFC01849190E0A1
:1012D000880F991FFC01E452FE4FA590B490FC01C9
:1012E000E253FE4F85909490FC01E054FE4F25910F
:1012F00034916FB6F89419821A821B82012FA401CF
:10130000B501CE0101960E945A01782EF1E08F13AB
:1013100030C089819FEF980F9E3FD0F09401A501C6
:1013200063E0C6010E9406096FBE872D0F900F90E3
:101330000F90DF91CF911F910F91FF90EF90DF9071
:10134000CF90BF90AF909F908F907F906F900895B7
:10135000813049F49401A50164E0C7010E940609A7
:1013600093E0792EE1CF8250823018F484E0782E19
:10137000DBCF712CD9CFCF93CFB7F8944EE151E0AA
:1013800065E171E0809120040E944A09813041F4B6
:101390004EE151E065E171E0809120040E944A092C
:1013A000823041F44EE151E065E171E0809120042A
:1013B0000E944A09833021F0CFBF80E0CF91089589
:1013C00081E0FCCF4F925F926F927F928F929F92BB
:1013D000AF92BF92CF92DF92EF92FF920F931F9343
:1013E000CF93DF9300D01F92CDB7DEB73B014A0108
:1013F000590190E0FC01E75FFD4F549086519E4FEC
:10140000FC01849190E0880F991FFC01E452FE4F8B
:10141000E590F490FC01E253FE4FC590D490FC019E
:10142000E054FE4F259134914FB6F89419821A82F8
:101430001B82052DA601B701CE0101960E945A011B
:10144000182F813051F5898181111CC09601A701A7
:1014500063E0C3010E9406094FBE812F0F900F90D9
:101460000F90DF91CF911F910F91FF90EF90DF9040
:10147000CF90BF90AF909F908F907F906F905F9034
:101480004F900895813409F03CC09601A7016AE0AD
:10149000C4010E94060912E0DFCF833009F031C099
:1014A0008981803409F02DC01A81133009F029C0D8
:1014B000000000000000000000000000000000002C
:1014C000000000000000000000000000000000001C
:1014D000000000000000000000000000000000000C
:1014E0009601A70168E0C5010E9406098B818370FF
:1014F000813049F0823049F0833009F0ADCF16E0F9
:10150000ABCF10E0A9CF14E0A7CF15E0A5CFCF93C4
:1015100080912F0185FF03C080E0CF910895CFB760
:10152000F8942FE231E045E251E062E271E080910F
:1015300021040E94E20990E0813059F42FE231E069
:1015400045E251E062E271E0809121040E94E209EB
:1015500091E0823059F42FE231E045E251E062E25D
:1015600071E0809121040E94E20991E0CFBF8330B5
:1015700021F480912401877F05C0843041F480915B
:10158000240188608093240181E08927C6CF8530BB
:1015900019F6EFCFEF92FF920F931F93CF93DF9344
:1015A0007C01D42FE62FF0E0E455FF4FC4916C2F5F
:1015B0006F77DC01ED91FC910484F585E02D0995B0
:1015C0008C01C7FF10C0892B11F4D1110CC0D701B9
:1015D000ED91FC910484F585E02D4D2F61EEC7015E
:1015E0000995082B192BC801DF91CF911F910F91FD
:1015F000FF90EF900895AF92CF92EF920F931F93C9
:10160000CF93DF93162FD42FC22F60E3811161E3B4
:101610008AE393E00E949C0360E3111161E38AE393
:1016200093E00E949C0360E3D11161E38AE393E0BD
:101630000E949C0360E3C11161E38AE393E00E948E
:101640009C0360E3011161E38AE393E00E949C0341
:1016500060E3E11061E38AE393E00E949C0360E3AE
:10166000C11061E38AE393E00E949C0360E3A11050
:1016700061E38AE393E0DF91CF911F910F91EF90A7
:10168000CF90AF900C949C032898000000000000BD
:10169000000000000000000000000000000000004A
:1016A000000000000000289A000000000000000078
:1016B000000000000000000000000000000000002A
:1016C000000000000000000000000000000000001A
:1016D000000000000000000000000000000000000A
:1016E00000000000000000000000000000000000FA
:1016F000000000000895289800000000000000008D
:1017000000000000000000000000000000000000D9
:1017100000000000000000000000000000000000C9
:1017200000000000000000000000000000000000B9
:1017300000000000000000000000000000000000A9
:101740000000000000000000000000000000000099
:1017500000000000289A00000000000000000000C7
:1017600000000895CF930E94870A8823E1F30E9426
:10177000F5046093F7017093F8018093F901909359
:10178000FA0160E081E10E94B9041899FECF0E943D
:10179000F5046093F3017093F4018093F501909345
:1017A000F6018BEC91E00197F1F7CFB7F89461E087
:1017B00081E10E94B9040E947B0B0E947B0B0E9476
:1017C0007B0B0E947B0B0E947B0B0E947B0B0E9479
:1017D0007B0B0E947B0B0E94440B0E947B0B0E94A0
:1017E0007B0B0E947B0B0E947B0B0E947B0B0E9459
:1017F0007B0B0E947B0B0E94440B0E947B0B0E9480
:101800007B0B0E947B0B0E947B0B0E947B0B0E9438
:101810007B0B0E947B0B0E94440B0E947B0B0E945F
:101820007B0B0E947B0B0E947B0B0E947B0B0E9418
:101830007B0B0E947B0B0E94440B0E947B0B0E943F
:101840007B0B0E947B0B0E947B0B0E947B0B0E94F8
:101850007B0B0E947B0B0E947B0B0E947B0B0E94E8
:101860007B0B0E94440B0E94440B0E94440B0E947D
:10187000440B0E94440B0E947B0B0E947B0B0E9436
:101880007B0B0E94440B0E94440B0E94440B0E945D
:10189000440B0E94440B0000000000000000289848
:1018A0000000000000000000000000000000000038
:1018B0000000000000000000000000000000000028
:1018C0000000000000000000000000000000000018
:1018D0000000000000000000000000000000000008
:1018E000289A60E081E10E94B904CFBF8091F301A2
:1018F0009091F4012091F7013091F801821B930B34
:101900009093F2018093F101CF910895EF92FF92AD
:101910000F931F93CF937C018B01C42F0E94B20BB6
:101920008091F1019091F201E816F906E0F0C430DF
:1019300029F48F54924087379105C0F0C0938202FA
:101940008EEF8C0F823010F0C53099F480917502C3
:1019500081110FC081E08093A402CF911F910F915C
:10196000FF90EF9008958017910708F70E94B20B3F
:10197000E5CF1092A402F1CF1092820280918202F0
:1019800081115BC00E94B20B8091F1019091F20134
:1019900081322EE4920790F78D3D2EE1920760F0A0
:1019A00080342FE1920720F541E060E47FE18CED87
:1019B0009EE10E94860CE2CF813B2DE1920750F020
:1019C00088372EE19207A0F442E068E77EE180EBE1
:1019D0009DE1EFCF873C22E0920730F1823523E092
:1019E000920730F443E062E573E086EC92E0E1CFE9
:1019F000813B26E39207E8F088392AE3920730F426
:101A000045E068E97AE380EB96E3D3CF88392AE3AF
:101A1000920779F080389E4308F0B0CF44E060E848
:101A20007EE388E99AE3C5CF8F3422E0920708F479
:101A3000A5CF863C924090F3A1CF813039F48CE45D
:101A40009DE190938102809380020DC0823019F451
:101A500088E59BE1F6CF9DEF980F923058F41092F5
:101A60008102109280021092B9020E94870A882394
:101A7000E1F308958530B9F780EB96E3E2CF482F84
:101A800050E090918D02911102C090918C02949F30
:101A90009001959F300D11243093F0012093EF01B8
:101AA000462F50E090918B02911102C090918A02D2
:101AB000949F9001959F300D11243093EE01209357
:101AC000ED018093EC016093EB010895E2E9F2E00F
:101AD00080918D0290918C02482F491B550B80916B
:101AE000EC01849F802D11248058848780918B0283
:101AF00090918A02482F491B550B8091EB01849FDE
:101B0000802D11248058858708958091AC02909192
:101B1000AB029923A9F0811103C081E080938C026C
:101B20008091AA029091A902992381F0811110C09D
:101B300081E080938B02089581E080938A0208956A
:101B4000882371F381E080938D02EACF8111F4CF75
:101B50000895CF92DF92EF92FF92CF9369017A01BD
:101B60009B01AC016091E7017091E8018091E9016E
:101B70009091EA010E94B82E81110EC0C1E0A70128
:101B800096016091E3017091E4018091E5019091EB
:101B9000E6010E94B82E8111C0E08C2FCF91FF90FA
:101BA000EF90DF90CF900895CF93DF938091AD02B7
:101BB000811109C08091AF02882309F458C0809137
:101BC0007F02811138C08091AE02811130C060E582
:101BD00080E50E943F0D80918902882341F1809128
:101BE0008B02882321F06BE28BE20E943F0D8091F3
:101BF0008A02882321F067E389E30E943F0D8091E8
:101C00007D028823A1F08091A702882321F06EE154
:101C100083E30E943F0D8091A802882341F08091C8
:101C20008B028823F1F166E486E20E943F0D8091E9
:101C3000AF028823E1F0809189028823C1F080916E
:101C40007D028823A1F08091AD02811110C08091A6
:101C5000AE0281110CC080917F02811108C0809179
:101C6000A702882309F16DE18AE40E943F0D80916B
:101C7000AE02882339F1D0918902C0917D02D11141
:101C80001AC0C1111AC080917E0281111BC0DD23D0
:101C9000C9F0CC23B9F06BE28BE2DF91CF910C94C9
:101CA0003F0D64E488E2C1CF8091A8028823F9F255
:101CB0006AE48DE1DACFC111E6CF6BE283E30E94E3
:101CC0003F0DE1CFDF91CF9108959091A7028091D0
:101CD000B5022091AF0221112DC09923A9F068E12E
:101CE00081110DC08091B602882321F06FE184E359
:101CF0000C943F0D8091B402882319F063E281E3D4
:101D0000F7CF6BE283E3F4CF882319F069E38CE12A
:101D1000EFCF8091B602882319F069E382E2E8CF21
:101D20008091B402882319F06FE38DE2E1CF69E37B
:101D30008FE2DECF992399F0882319F063E287E4DC
:101D4000D7CF8091B602882319F069E284E4D0CF1E
:101D50008091B4028823A9F26BE28DE3C9CF882376
:101D600019F067E483E2C4CF8091B602882319F0AA
:101D700064E489E2BDCF8091B4028823C1F260E4BB
:101D80008EE2B6CF80917A02882341F080917D0265
:101D9000811104C060E080E50C943F0D089520910E
:101DA0008C02211102C020918D0220938902309172
:101DB0008B02311102C030918A0230937D029091E2
:101DC000A702911102C09091A80290937E02809187
:101DD000AC0281118091AB0280937A0280918402DF
:101DE00081110AC080918302811106C08091850211
:101DF000811102C08091860280937C029923D9F0E0
:101E00003323C9F02223B9F0882321F08091AE0258
:101E100021E0822780937F0280917402882351F011
:101E20008091AD02882321F08091B3019111892F17
:101E30008093B301089580E0EDCFCF93DF9380913D
:101E4000A70220917C02882321F09091A802911191
:101E500060C09091C101911191C010929C021092AA
:101E60009D0210929A0210929B02E091860270915C
:101E700085024E2F471B550BDA01F0E5F49F902D9C
:101E8000112490589093A1026091840230918302B2
:101E9000C62FC31BDD0BCF9F402D1124405840930C
:101EA000A00290918902911122C090917D02992304
:101EB000F1F0E11102C07723D1F0611118C03111A6
:101EC00016C08823A1F080918B0290918A02891B11
:101ED000990B97E1899F802D112480588093A0024F
:101EE00081E48A9F802D112480588093A1022223AF
:101EF00019F081E08093C001E093C2017093C301A7
:101F00006093C4013093C501222379F1DF91CF9111
:101F100008958091C001811122C090918402909314
:101F20009C023091850230939A02809183028093C3
:101F30009D024091860240939B0250E85093A1027B
:101F40005093A002222319F051E05093C101409315
:101F5000C2013093C3019093C4018093C501211144
:101F6000D5CF8091C101811104C08091C001882327
:101F700069F21092C1011092C001C8CF2223C9F3A7
:101F8000C5CF6F927F928F929F92AF92BF92CF9266
:101F9000DF92EF92FF920F931F93CF93DF93CDB712
:101FA000DEB73801F401DC011C91111104C0DA0123
:101FB0001C9111111C92DC011C91112331F0DA01EA
:101FC0001C91112311F0DC011C92DB011C911111F9
:101FD00004C0D9011C9111111C92DB011C91112329
:101FE00031F0D9011C91112311F0DB011C92DB01AE
:101FF0006C91DC018C9181111BC0611125C0D50150
:102000001C921082F601108281E0D3018C93F701BB
:102010008083DF91CF911F910F91FF90EF90DF9020
:10202000CF90BF90AF909F908F907F906F900895CA
:10203000611114C081E0D7018C931082F601808376
:10204000D3018C91F501E4CF81E0D3018C93D501CC
:102050001C92D6018C93D7018C91DACFD5018C914B
:10206000D6019C919923E1F021E08227D3019C9134
:10207000899FC00111248170D5018C9380818227B2
:10208000D7019C91899FC001112481708083D60162
:102090001C928081F7018083D5018C91F301B8CF28
:1020A0008111B7CF80818111B4CF81E0DA018C93A7
:1020B000F901AECF8F929F92AF92BF92CF92DF92F3
:1020C000EF92FF920F931F938091C001882341F0FC
:1020D0008091A702882321F08091A80281110CC071
:1020E0008091C1018823A1F18091A702882321F06A
:1020F0008091A80281112CC08091C201811107C07A
:102100008091B702882319F081E08093B00180911B
:10211000C301811107C08091B602882319F081E0C4
:102120008093AF018091C401811107C08091B402F6
:10213000882319F081E08093B1018091C50181115C
:1021400007C08091B502882319F081E08093B20125
:102150008DE8882E82E0982E9CE8A92E92E0B92E78
:102160002EE9C22E21E0D22E33EAE32E31E0F32E07
:1021700002EA11E027EA31E046EA51E06CEA72E057
:102180008BEA92E00E94C10F4AE8842E42E0942E2E
:102190005BE8A52E52E0B52E6FE9C62E61E0D62E83
:1021A00075EAE72E71E0F72E04EA11E029EA31E042
:1021B00048EA51E06AEA72E089EA92E00E94C10FBF
:1021C000E6E88E2EE2E09E2EF5E8AF2EF2E0BF2E7E
:1021D000A0EACA2EA1E0DA2EBCEAEB2EB1E0FB2E7B
:1021E0000BEA11E020EB31E04FEA51E067EB72E0DF
:1021F00086EB92E00E94C10F13E8812E12E0912E2F
:1022000004E8A02E02E0B02E81EAC82E81E0D82E8C
:102210009EEAE92E91E0F92E0DEA11E022EB31E081
:1022200041EB51E065EB72E084EB92E00E94C10F5C
:1022300060E580E50E943F0D8091A502882321F092
:1022400064E684E60E943F0D80917C02811108C003
:102250001092C2011092C3011092C4011092C501E4
:102260001F910F91FF90EF90DF90CF90BF90AF90B4
:102270009F908F9008958091B002809392028091F8
:10228000B102809393028091B20280939402809174
:10229000B302809395028091AE0280939802909150
:1022A000AF0290939602309174029091AD02311179
:1022B00020C09093970220EE929F202D1124215E42
:1022C0002093A302332349F02091A702222329F06F
:1022D0002091A8022111909397029091A6029093C9
:1022E000990290EE899F802D1124815E8093A20235
:1022F000089520E0992331F02091B301222329F0A1
:1023000020918B0220939702D6CF292FFBCF0E94DA
:102310003B110E945A108091900281110E94850DFC
:1023200080918402309185029091830220918602EF
:102330004091A702442321F04091A802411178C0A6
:1023400010929C0210929D0210929A0210929B028F
:10235000231B330B34E6239F202D11242058209378
:10236000A102891B990B839F802D11248058809393
:10237000A0020E94CF0E8091A7029091A80288230C
:1023800009F462C0911160C06CE386E40E943F0DC5
:1023900080918902882381F080917D02882361F0F9
:1023A0008091AE02811104C08091B102882321F096
:1023B0006CE180E60E943F0D80917F02882391F0BE
:1023C0008091A702882309F46FC08091A80281112F
:1023D00009C080918602882309F455C06FE38DE41B
:1023E0000E943F0D8091AD02882381F08091AE0262
:1023F00081110CC080918902882341F080918B0269
:10240000882321F063E488E40E943F0D8091AE02AE
:10241000882361F08091A702882321F08091A8028F
:10242000811104C063E488E40E943F0D0C94660DA2
:1024300080939C0230939A0290939D0220939B027A
:1024400080E88093A10293CF992309F4B5CF81113D
:10245000B3CF6EE38CE10E943F0D80918902882307
:1024600009F4AACF80917D02882309F4A5CF809139
:10247000AE02811105C08091B102882309F49CCF7E
:1024800060E68CE197CF80918402882319F067E39E
:1024900083E5A6CF80918502882319F06EE288E556
:1024A0009FCF65E28CE59CCF80918302882319F051
:1024B0006CE585E295CF80918502882319F068E567
:1024C0008EE28ECF80918402882319F063E587E342
:1024D00087CF6DE48FE384CFCF930E943B110E949E
:1024E0005A100E941D0F0E94CF0EC0917D0225E957
:1024F00031E04C2F67E971E080918D020E949D01CF
:1025000025E931E04C2F64E971E080918C020E9452
:102510009D018091950190919601C09189021816B4
:1025200019060CF031C1CC2309F42EC10197909308
:102530009601809395018091BC01811117C0809113
:10254000BD01811108C180918B02882319F081E0BF
:102550008093BC0180918A02882319F081E08093E6
:10256000BD018091BC01882309F4F5C08091A902C6
:10257000882329F081E080938B02809392018091DF
:102580008A02882329F010928A0281E08093A901AF
:102590002DE831E04C2F6FE871E080918B020E94B2
:1025A0009D012DE831E04C2F6CE871E080918A02AA
:1025B0000E949D0180918D0190918E01181619063F
:1025C0000CF034C120917D02222309F42FC1019720
:1025D00090938E0180938D018091BF01811117C06E
:1025E0008091BE01811109C180918D02882319F06B
:1025F00081E08093BF0180918C02882319F081E0F3
:102600008093BE018091BF01882309F4F6C08091B8
:10261000AC02882329F081E080938D0280939101A0
:1026200080918C02882329F010928C0281E08093A3
:10263000A6018091A8029091A702992309F497C15D
:10264000811128C067E185E30E943F0D80918902D6
:10265000882369F080917D02882349F08091AE0241
:10266000882309F420C16EE183E30E943F0D0E949C
:10267000C20E80917402882369F08091AD02882394
:1026800049F080918B02811105C0109297028DE76D
:102690008093A30280917F02882351F08091A7024A
:1026A000882321F08091A802811102C00E94650E4A
:1026B0000E94D40D2091B0028091AA0121112DC158
:1026C00081111092AA014091EF015091F001403424
:1026D00051050CF4EEC080918C02811124C18091CF
:1026E0009D01811110929D0180918D0281112DC15A
:1026F00080919A01811110929A0180919B01909191
:102700009C01181619062CF4019790939C01809354
:102710009B01809198019091990118161906C4F4B3
:102720006091ED017091EE016731710564F0222333
:1027300051F020918B02222309F4DDC01092920205
:1027400021E02093AA010197909399018093980129
:10275000CF910C94660D8091BD01882309F418CFA8
:102760008091AA02882329F081E080938A028093D5
:10277000930180918B02882309F40ACF10928B0277
:1027800081E08093A80104CF8091A902882391F071
:102790008091BC01882371F0CC2361F0809192017B
:1027A000882341F080918A02811104C081E08093E6
:1027B0008B02EECE8091AA02882391F08091BD0118
:1027C000882371F0CC2361F080919301882341F03C
:1027D00080918B02811104C081E080938A02D8CE5F
:1027E00010929601109295011092BD011092BC01B9
:1027F0001092920110929301CBCE8091BE0188235A
:1028000009F417CF8091AB02882329F081E08093EF
:102810008C028093900180918D02882309F409CF66
:1028200010928D0281E08093A70103CF8091AC02CA
:102830008823A1F08091BF01882381F080917D02DF
:10284000882361F080919101882341F080918C026E
:10285000811104C081E080938D02EBCE8091AB02A8
:102860008823A1F08091BE01882381F080917D02B0
:10287000882361F080919001882341F080918D023E
:10288000811104C081E080938C02D3CE10928E011E
:1028900010928D011092BE011092BF011092910111
:1028A00010929001C6CE67E18BE3DFCE64E488E24C
:1028B0007CC080919B0190919C01181619060CF028
:1028C00028CF80918B02882359F08091ED0190915F
:1028D000EE0147972CF01092920281E08093AA01BA
:1028E00010929C0110929B0183E190E090939901DA
:1028F0008093980102CF20918A02222309F423CFEA
:10290000403451050CF01FCF653371050CF01BCF1F
:102910008C3091050CF012CF16CF882309F4D3CE5A
:1029200010929202D0CE80917D028111DDCE8091F5
:102930009D018111D9CE81E080939D0184E090E0DA
:1029400090939C0180939B01CFCE80917D02811159
:10295000D4CE80919A018111D0CE81E080939A01EA
:1029600084E090E090939C0180939B01C6CE8823E5
:1029700009F490CE6BE38BE10E943F0D80918902B8
:102980008823A9F080917D02882329F16BE387E1F8
:102990000E943F0D8091AE02882349F080918B0206
:1029A000882309F483CF66E486E20E943F0D0E94EB
:1029B000C20E80917402882309F46CCE8091AD021E
:1029C000882309F467CE80918B02811163CE109227
:1029D000970280E55DCE8091B102882341F360E5E6
:1029E00080E5E3CF87E00E94900421E0892B09F085
:1029F00020E02093AD028FE00E94900421E0892B1B
:102A000009F020E02093AB0280E10E94900421E0D5
:102A1000892B09F020E02093AA028EE00E94900406
:102A200021E0892B09F020E02093AC0288E00E948D
:102A3000900421E0892B09F020E02093A70286E092
:102A40000E94900421E0892B09F020E02093A80245
:102A50008CE00E94900421E0892B09F020E0209373
:102A6000A60280E00E94900421E0892B09F020E07A
:102A70002093AE0287E10E94900421E0892B09F0A7
:102A800020E02093B20284E00E94900421E0892B90
:102A900009F020E02093B10281E00E94900421E03F
:102AA000892B09F020E02093B30286E10E94900474
:102AB00021E0892B09F020E02093AF0285E10E94FC
:102AC000900421E0892B09F020E02093A9028DE0F9
:102AD0000E94900421E0892B09F020E02093B002AD
:102AE00084E10E94900421E0892B09F020E02093EA
:102AF000B40282E10E94900421E0892B09F020E0D9
:102B00002093B70283E10E94900421E0892B09F011
:102B100020E02093B60285E00E94900421E0892BFA
:102B200009F020E02093B5020895FC01BC01615F2B
:102B30007F4F30E020E09481492F50E090FF02C0A9
:102B40002F5F3F4F55954795942F4111F5CF148234
:102B500031966E177F0779F7C9010895FC01683631
:102B6000C0F4862F877021E030E001C0220F8A95E3
:102B7000EAF7669566956695E60FF11D8581442313
:102B800029F0282B258381E090E0089520952823C3
:102B9000F9CF90E2960F983078F4848121E030E00C
:102BA00001C0220F9A95EAF7442319F0282B2483B9
:102BB000EACF20952823FBCF8289442331F0681780
:102BC00011F0811106C0628BDECF681302C0128A39
:102BD000DACF90E080E0089541E0682F8DEB93E03C
:102BE0000C94AE15CF93DF9340E0682F8DEB93E00C
:102BF0000E94AE15EC01892B21F08DEB93E00E9431
:102C0000D907CE01DF91CF91089567FD03C041E060
:102C10000C94CA0A21E030E0FC013383228390E067
:102C200080E008950F931F93CF93DF9367FF0DC04C
:102C300021E030E0FC013383228310E000E0C80192
:102C4000DF91CF911F910F910895EC0140E00E9418
:102C5000CA0A8C01892B99F3E881F9810284F385F2
:102C6000E02DCE010995EBCFFF920F931F93CF93E9
:102C7000DF93EC01F62E0E9405168C01892B59F08A
:102C8000E881F9810284F385E02DCE0109956F2D4D
:102C9000CE010E941216C801DF91CF911F910F91B2
:102CA000FF9008958F929F92AF92BF92CF92DF9242
:102CB000EF92FF920F931F93CF93DF93CDB7DEB7C1
:102CC000ADB6BEB680911F042DB73EB7281B3109A3
:102CD0000FB6F8943EBF0FBE2DBF8DB79EB70196BD
:102CE0006C01E090EE03F12C8091EA039091EB03EC
:102CF000D601FC019F01281B390B2E153F051CF442
:102D000021912D93F7CF8091EF03882359F1809182
:102D1000E6039091E70328E097FD09C068E671E0BB
:102D20000E94E4306DE270E00E94E430262F809132
:102D3000E8039091E90368E097FD08C068E671E058
:102D40000E94E4306DE270E00E94E430F601EE0D86
:102D5000FF1D90E1699FB0011124262B2083F7010C
:102D600031967F0186010E0D1F1D2091F4033091D5
:102D7000F5034091F2035091F3036091D0037091F9
:102D8000D1038091F00381700E94B301E80EF91E17
:102D900086010E0D1F1D2091F8033091F90340911B
:102DA000F6035091F7036091D2037091D3038091A1
:102DB000F003869581700E94B301E80EF91E86012A
:102DC0000E0D1F1D2091FC033091FD034091FA036D
:102DD0005091FB036091D4037091D5038091F0036F
:102DE00082FB882780F90E94B301E80EF91E860154
:102DF0000E0D1F1D20910004309101044091FE032F
:102E00005091FF036091D6037091D7038091F00336
:102E100083FB882780F90E94B301E80EF91E860122
:102E20000E0D1F1D209104043091050440910204F1
:102E3000509103046091D8037091D9038091F003FD
:102E4000829581700E94B301E80EF91E86010E0D75
:102E50001F1D2091080430910904409106045091EF
:102E600007046091DA037091DB038091F00385FB26
:102E7000882780F90E94B301E80EF91E86010E0D25
:102E80001F1D20910C0430910D0440910A045091B3
:102E90000B046091DE037091DF038091F103817078
:102EA0000E94B301E80EF91E86010E0D1F1D209130
:102EB00010043091110440910E0450910F04609160
:102EC000DC037091DD038091F103869581700E948F
:102ED000B301E80EF91E86010E0D1F1D209114048A
:102EE0003091150440911204509113046091E00355
:102EF0007091E1038091F10382FB882780F90E94A1
:102F0000B301E80EF91E86010E0D1F1D2091180455
:102F10003091190440911604509117046091E20316
:102F20007091E3038091F10383FB882780F90E946D
:102F3000B3018E0D9F1D8601080F191F20911C04DF
:102F400030911D0440911A0450911B046091E403D8
:102F50007091E5038091F103829581700E94B30125
:102F60000E94D1084C0140911F0480911E0450E042
:102F70007A01FFEFEF1AFF0A2DB73EB72E193F096E
:102F80000FB6F8943EBF0FBE2DBF0DB71EB70F5F33
:102F90001F4FEDB7FEB78183B601C80101960E94AD
:102FA0004632F4018381A701B80180640E944C0578
:102FB0000FB6F894BEBE0FBEADBEDF91CF911F918C
:102FC0000F91FF90EF90DF90CF90BF90AF909F90C8
:102FD0008F9008959091ED03891700F5E82FE695FD
:102FE000E695E6952091EA033091EB03E20FF32F8B
:102FF000F11D282F277081E090E0A0E0B0E004C030
:10300000880F991FAA1FBB1F2A95D2F72081822BF8
:1030100080838091EC0381110C9452160895E82F5F
:10302000E695E695E6952091EA033091EB03E20FF1
:10303000F32FF11D282F277081E090E0A0E0B0E091
:1030400004C0880F991FAA1FBB1F2A95D2F780952D
:103050009081892380838091EC0381110C94521616
:103060000895EF92FF921F93CF93DF93CDB7DEB712
:103070002C970FB6F894DEBF0FBECDBF809107032B
:103080008111FCCF81E080930703809306039FEFBB
:10309000909305031092040395E0909303038093AB
:1030A000E2028091E202846A8093E2028091E1026E
:1030B000813091F51092E1028091E2028093BB0091
:1030C0008091BC0083FDF8CF85EC8093BC0080919B
:1030D00007038130E1F3809104038630F8F4809196
:1030E0000403A3EEB2E0E1ECF2E010E0181318C024
:1030F0001092C0021093BF02CE0101967C01809114
:10310000C002181789F08AE893E00E943D06F70193
:10311000819391937F01F3CF85EED7CF86E0E1CF06
:103120009D9191931F5FE2CF89819A8190932D03A6
:1031300080932C038B819C8190932F0380932E038B
:103140008B859C852D813E81220F331F220F331FDB
:10315000AC01559547955595479543705527242BB8
:10316000352B30933103209330032F813885220F84
:10317000331F220F331FAC01E4E055954795EA95C4
:10318000E1F743705527242B352B309333032093DD
:10319000320329853A85220F331F220F331FAC01DA
:1031A000A6E055954795AA95E1F743705527242B3E
:1031B000352B30933503209334039C0120953095B3
:1031C00021703327309337032093360321E030E01A
:1031D00081FF02C030E020E03093390320933803B0
:1031E00060E080E02C960FB6F894DEBF0FBECDBF36
:1031F000DF91CF911F91FF90EF900C94AC067894E3
:1032000060E081E10E94B9040E94311880912C0392
:1032100090918F02891B80939E0280912E03909142
:103220008E02891B80939F028091A4022091360315
:1032300030913703882371F0232B41F481E02091F2
:10324000380330913903232B09F480E08195809372
:10325000A302089581E02115310509F480E08093EF
:1032600097028091380390913903892B91F3232B96
:1032700081F31092970280E5EACF1F93CF93DF93FB
:10328000EC01162F0E94DA2D181739F0612FCE01AC
:10329000DF91CF911F910C94E22DDF91CF911F917F
:1032A00008950C94DA2D2F923F924F925F926F9275
:1032B0007F928F929F92AF92BF92CF92DF92EF92C6
:1032C000FF920F931F93CF93DF93CDB7DEB72E9767
:1032D0000FB6F894DEBF0FBECDBF60919E0270E0C6
:1032E00090E080E00E94652F4B015C0160919F029D
:1032F00070E090E080E00E94652F6B017C0120E08F
:1033000030E040E053E4C501B4010E9417301816C4
:103310000CF0ADC181E090E09093DA018093D90187
:1033200020E030E040E053E4C501B4010E94B82E33
:1033300087FFA2C181E090E09093D8018093D701EC
:1033400020E030E040E053E4C701B6010E941730AE
:1033500018160CF096C181E090E09093CE01809316
:10336000CD0120E030E040E053E4C701B6010E9407
:10337000B82E87FF8BC181E090E09093CC018093C1
:10338000CB010091D9011091DA018091D701909180
:10339000D8019E878D87B801681B790B072E000C1A
:1033A000880B990B0E94672F69837A838B839C8398
:1033B00020E030E040E053E4C501B4010E944B2E10
:1033C00029813A814B815C810E941C304B015C0158
:1033D0008092E7019092E801A092E901B092EA019F
:1033E0002090CB013090CC016091CD017091CE0145
:1033F00062197309072E000C880B990B0E94672F26
:1034000069877A878B879C8720E030E040E053E42F
:10341000C701B6010E944B2E29853A854B855C85F4
:103420000E941C306B017C01C092E301D092E40148
:10343000E092E501F092E60120E030E040EA52E45B
:10344000C501B4010E94BD2E6093D3017093D401D5
:103450008093D5019093D60120E030E040EA52E419
:10346000C701B6010E94BD2E6093CF017093D001B9
:103470008093D1019093D201A5019401C501B401BB
:103480000E941C302B013C01A7019601C701B60127
:103490000E941C309B01AC01C301B2010E944C2E62
:1034A0000E948F302B013C0120E030E040EA52E4E2
:1034B0000E9417301816C4F5A3019201C501B4018A
:1034C0000E94BD2E20E030E040EA52E40E941C3011
:1034D0000E942F2F072E000C880B990B0E94672F3C
:1034E0006093E7017093E8018093E9019093EA010A
:1034F000A3019201C701B6010E94BD2E20E030E079
:1035000040EA52E40E941C300E942F2F072E000C2C
:10351000880B990B0E94672F6093E3017093E4017D
:103520008093E5019093E60120E030E040EA52E428
:103530006091E7017091E8018091E9019091EA01C1
:103540000E94BD2E6B017C01C092E701D092E80180
:10355000E092E901F092EA0120E030E040EA52E432
:103560006091E3017091E4018091E5019091E601A1
:103570000E94BD2E2B013C014092E3015092E401D8
:103580006092E5017092E601A701960169817A8156
:103590008B819C810E941C306D837E838F839887F2
:1035A0002091DB013091DC014091DD015091DE0181
:1035B0000E944B2E4B015C0120E030E0A9010E94EB
:1035C0001730181624F0B7FAB094B7F8B09423E384
:1035D00033E343E95EE3C701B6010E94B82E87FFDB
:1035E00010C023E333E343E95EE3C301B2010E9469
:1035F000B82E87FF06C082E090E09093C8018093C8
:10360000C70180919202882309F445C08091C601C8
:10361000833018F48F5F8093C6012DEC3CEC4CE8AE
:103620005EE3C301B2010E9417301816BCF5109278
:10363000C8011092C701012B09F492C023E333E3C0
:1036400043E95EE3C701B6010E94173087FD88C0D9
:103650008091CA01843018F48F5F8093CA01AD85D0
:10366000BE85AB2B09F08DC01092C90191C010929C
:10367000DA011092D90154CE1092D8011092D701DC
:103680005FCE1092CE011092CD016BCE1092CC0184
:103690001092CB0176CE1092C601BFCF2DEC3CEC40
:1036A0004CE85EE3C701B6010E94173018161CF6FD
:1036B0008091C7019091C801181619060CF0BBCF74
:1036C0002AE939E949E45FE3C701B6010E941730EE
:1036D000181654F020E030E040E85EE3C501B40184
:1036E0000E94B82E181674F01092C8011092C701EB
:1036F0008091C7019091C80101979093C801809370
:10370000C70199CF8091C6018150823088F38091A2
:1037100093028111EDCF809198028111E9CF8091C0
:1037200097028111E5CF809194028111E1CF8091C0
:1037300095028111DDCF809196028111D9CF8091C0
:10374000A3028B32A8F68091A2028B3288F61092E7
:10375000D3011092D4011092D5011092D601C8CF96
:103760001092CA01AD85BE85AB2B09F47DCF23E352
:1037700033E343E95EE3C701B6010E94173087FDDA
:1037800073CF8091C901843018F48F5F8093C90191
:1037900080919802882309F4F6C0809100019091ED
:1037A000010197FF99C18091CA01843029F080916D
:1037B000C901843009F007C12A94232809F003C104
:1037C00023E333E343E35FE366E676E686E39FE3E2
:1037D0000E94A90D8111BEC023E333E343E35FE3FD
:1037E000CA01B9010E94A90D8111B4C026E636E6CE
:1037F00046E35FE363E373E383E39FE30E94A90D82
:103800008111A8C026E636E646E35FE360E070E09B
:1038100080E39FE30E94A90D81119CC02AE939E948
:1038200049E35FE360E070E080E39FE30E94A90D5D
:10383000811190C02AE939E949E35FE36DEC7CEC42
:103840008CE29FE30E94A90D811184C02DEC3CEC19
:103850004CE35FE36DEC7CEC8CE29FE30E94A90DEE
:10386000811178C02DEC3CEC4CE35FE36AE979E927
:1038700089E29FE30E94A90D81116CC02DEC3CEC04
:103880004CE35FE366E676E686E29FE30E94A90DDD
:10389000811160C020E030E040E45FE366E676E658
:1038A00086E29FE30E94A90D811154C020E030E020
:1038B00040E45FE363E373E383E29FE30E94A90DC7
:1038C000811148C023E333E343E45FE363E373E33D
:1038D00083E29FE30E94A90D81113CC023E333E3FF
:1038E00043E45FE360E070E080E29FE30E94A90DA3
:1038F000811130C026E636E646E45FE360E070E022
:1039000080E29FE30E94A90D811124C026E636E6DD
:1039100046E45FE36DEC7CEC8CE19FE30E94A90D33
:10392000811118C02AE939E949E45FE36DEC7CECC8
:103930008CE19FE30E94A90D81110CC02AE939E9AD
:1039400049E45FE36AE979E989E19FE30E94A90D0F
:103950008823C9F18AE999E9A9E3BFE38093D301F8
:103960009093D401A093D501B093D60180E090E06C
:10397000A0E3BFE38093CF019093D001A093D10146
:10398000B093D20120C080919702811106CF80911F
:10399000A3028B3250F49091A2029B3230F422E0C9
:1039A00030E030930101209300018B3208F0F5CE16
:1039B0008091A2028B3208F0F0CE809100019091AC
:1039C000010197FDF0CE8091DF019091E001A0917F
:1039D000E101B091E2018093DB019093DC01A093BF
:1039E000DD01B093DE018D819E81AF81B88580932A
:1039F000DF019093E001A093E101B093E20120E0A8
:103A000030E040EA52E46091D3017091D40180919A
:103A1000D5019091D6010E941C3029813A814B81B9
:103A20005C810E941C3020E030E040E053E40E94C2
:103A30004C2E4B015C018092D3019092D401A09254
:103A4000D501B092D60120E030E040EA52E4609126
:103A5000CF017091D0018091D1019091D2010E944B
:103A60001C3029853A854B855C850E941C3020E0FE
:103A700030E040E053E40E944C2E6B017C01C09288
:103A8000CF01D092D001E092D101F092D201C501D4
:103A9000B4010E94362F60939E02C701B6010E94B6
:103AA000362F60939F022E960FB6F894DEBF0FBE9E
:103AB000CDBFDF91CF911F910F91FF90EF90DF90DD
:103AC000CF90BF90AF909F908F907F906F905F90BE
:103AD0004F903F902F90089501979093010180930C
:103AE00000016BCF1F920F920FB60F9211248F938C
:103AF0009F938091E1009091E100937F9093E1008A
:103B000083FF0FC01092E90091E09093EB001092B8
:103B1000EC0092E39093ED001092BE0298E0909337
:103B2000F00082FF22C093E09093E9009091F200B0
:103B3000992319F09AE39093E800909171029923E8
:103B400041F090917102915090937102911101C0D6
:103B50005D9A9091BD02992341F09091BD029150E0
:103B60009093BD02911101C0289A84FF18C08091E2
:103B7000E2008E7E81608093E2008091E1008F7E82
:103B80008093E100809172028E7E80618093720248
:103B90009F918F910F900FBE0F901F90189580FFEF
:103BA000F7CF8091E2008E7E80618093E200809169
:103BB000E1008E7E8093E100809172028E7E8160B2
:103BC000E5CF1F920F920FB60F921124CF92DF9282
:103BD000EF92FF920F931F932F933F934F935F9317
:103BE0006F937F938F939F93AF93BF93EF93FF93C5
:103BF000CF93DF93CDB7DEB76C97DEBFCDBF10920A
:103C0000E9008091E80083FF25C068E0CE01459679
:103C10000E94D50282EF8093E8008D8987FF39C02A
:103C20009091E80090FFFCCF982F907609F034C176
:103C30009E894F89588D2F89F88C911131C0803819
:103C400061F5809173028093F1001092F1008EEF84
:103C50008093E8006C960FB6F894DEBF0FBECDBF20
:103C6000DF91CF91FF91EF91BF91AF919F918F9194
:103C70007F916F915F914F913F912F911F910F9184
:103C8000FF90EF90DF90CF900F900FBE0F901F909E
:103C900018959EEF9093E800C7CF1092F100D5CF12
:103CA000913059F48111D3CF4130510581F6809183
:103CB00073028D7F80937302CACF933049F48111D0
:103CC000C6CF4130510519F6809173028260F2CF60
:103CD000953041F48091E80080FFFCCF206820936C
:103CE000E300B5CF963009F0A9C00B8D1C8D22E002
:103CF0001092E90010926F0210926E02F2122EC022
:103D000010926D0210926C020E9423031F8299E0B0
:103D10009983FA8291E09E8390EA98879AEF998737
:103D200020916E0230916F02275F3F4F3C832B83BF
:103D30008D831092E90010926F0210926E02109320
:103D40006D0200936C0249E050E0BE016F5F7F4F4F
:103D500080E00E949E020E94230379CF10936D029F
:103D600000936C020E940F03DC0112960D911C91CE
:103D70000115110509F451C1D801ED91FC910480A0
:103D8000F581E02DBE016B5E7F4FC801099500975C
:103D900009F03EC1F80100851185EACFF3E0FF127A
:103DA0000EC08F89882309F440C0823061F440E856
:103DB00060E180E991E00E946B02811148CF81E2CD
:103DC0008093EB0047CF813029F440E86BE084E832
:103DD00091E0F1CF833099F70E940F03DC01129636
:103DE000ED90FC908E010F5F1F4F6801E114F1040C
:103DF00079F0D701ED91FC910680F781E02DB801B3
:103E0000C7010995080F111DF701E084F184EECF79
:103E1000D8011C92F60101900020E9F73197BF010B
:103E20006C197D0940E0C601C6CF6EE671E0FB016A
:103E3000449150E080E80E949E0209CF973009F437
:103E4000BECF983021F481E08093F10000CF99300B
:103E500009F0FDCE837009F0B2CFE3E0F1E081E03C
:103E600031E096E32191222371F08093E9003093B1
:103E7000EB00DF0111972C912093EC009093ED0063
:103E80008F5F873079F78EE78093EA001092EA001F
:103E90008F898093BE02DBCE8B8D9C8D1092E900C2
:103EA00010926F0210926E0290936D0280936C02DA
:103EB000898D811192C08E899D89913A49F4813210
:103EC00009F07DCF47E050E06DE071E080E0B3CFD6
:103ED000913209F074CF833269F48F89988DB0E004
:103EE000A0E08093090190930A01A0930B01B09385
:103EF0000C01ADCE803269F48091E80082FFFCCFE6
:103F000067E08DE091E00E94D5028BEF8093E8009E
:103F10009ECE823209F09BCE8F8980931401EEEF02
:103F2000FFE7859194918B3F9C4D51F1E0E0F8E0E3
:103F300080910D0190910E01A0910F01B09110019F
:103F4000803B9440A105B105F1F48091140180FDFE
:103F50001AC0EE3F8AE0F80789F587E797E7918373
:103F60008083809160008093700288E19BE00FB6AF
:103F7000F894A895809360000FBE9093600067CE80
:103F8000EEEFFAE0D5CF808191818737974709F02E
:103F90005ECEA895809160008861809360008091DA
:103FA000700280936000EE3F2AE0F20789F0809172
:103FB000FE0A9091FF0A9183808349CE808191818E
:103FC0008737980751F29093FF0A8093FE0AC5CF76
:103FD0001092FF0A1092FE0A3ACE0E940F03DC01F3
:103FE00012960D911C910115110509F4E8CED80126
:103FF000ED91FC910190F081E02DBE016B5E7F4F51
:10400000C8010995811123CEF80100851185EBCFF8
:10401000181619060CF41BCED2CEF1E0FF12BECE5C
:1040200062E771E004CF1F920F920FB60F92112436
:104030002F933F938F939F93AF93BF938091580299
:1040400090915902A0915A02B0915B0230915702AF
:1040500023E0230F2D3758F50196A11DB11D2093A4
:1040600057028093580290935902A0935A02B0933A
:104070005B0280915C0290915D02A0915E02B09122
:104080005F020196A11DB11D80935C0290935D02B9
:10409000A0935E02B0935F02BF91AF919F918F9109
:1040A0003F912F910F900FBE0F901F90189526E80B
:1040B000230F0296A11DB11DD2CF1F920F920FB6F2
:1040C0000F9211242F933F934F935F936F937F939E
:1040D0008F939F93AF93BF93EF93FF938091B9001A
:1040E000887F803609F44AC0F0F5883209F4A7C009
:1040F00018F5803109F49BC0B8F4882309F4F9C09D
:10410000883009F494C0FF91EF91BF91AF919F91D6
:104110008F917F916F915F914F913F912F910F9070
:104120000FBE0F901F901895883109F488C0803217
:1041300051F78093050314C0803409F49DC040F406
:104140008033B9F38833F9F68093050385ECB0C06A
:10415000803509F485C0883509F496C0883499F60D
:104160000E94FC05D0CF883909F48CC038F5883717
:1041700029F050F4883611F0803729F683E08093D7
:1041800007031092560257C0883809F47BC0803963
:1041900019F0803809F0B7CF80915602803208F0CC
:1041A00071C0E091560281E08E0F8093560280919B
:1041B000BB00F0E0EA5CFD4F80833DC0803B39F0FE
:1041C000E0F4803A09F479C0883A09F09CCF84E0A1
:1041D000809307031092350210923402E091780226
:1041E000F091790209958091340281110FC081E02C
:1041F000809334021092140209C0803C09F4A6CFC7
:10420000883C09F4A3CF883B09F07DCFE0913502CB
:1042100081E08E0F80933502F0E0EC5EFD4F8081EF
:104220008093BB00909135028091340229C0809127
:10423000E2028093BB0085EC8093BC0064CF909138
:10424000040380910303981758F5E091040381E07B
:104250008E0F80930403F0E0ED51FD4F8081E9CF94
:10426000E091040381E08E0F809304038091BB00F2
:10427000F0E0ED51FD4F80839091040380910303A2
:104280009817C8F285E8D8CFE091040381E08E0F3B
:10429000809304038091BB00F0E0ED51FD4F8083DB
:1042A0008091060381115CCF81E08093E10284EA72
:1042B0008093BC001092070326CF85EC8093BC004E
:1042C0001092070380915602803230F4E09156023A
:1042D000F0E0EA5CFD4F10826091560270E0E091E0
:1042E0007602F091770286E392E0099510925602E9
:1042F0000ACF1092050334CFEF92FF920F931F93D2
:10430000CF93DF93CDB7DEB7C659D1090FB6F89476
:10431000DEBF0FBECDBF10923D0310923C0388EE6E
:1043200093E0A0E0B0E080933E0390933F03A0931E
:104330004003B09341032DE431E030933B032093DD
:104340003A032FEF3FEF3093470320934603109239
:104350008D0310928C0380938E0390938F03A09310
:104360009003B09391038FE591E090938B0380933A
:104370008A031092C0031092BF038DE791E09093DF
:10438000BE038093BD038091B503811113C01092C9
:10439000B0031092AF0388E292E09093B20380934F
:1043A000B10386E390E09093B4038093B30381E07C
:1043B0008093B5038091A70381112CC011E0109365
:1043C0009A0310939B0380EA93E090939D0380935C
:1043D0009C0310929F0310929E0381E791E09093BB
:1043E0009703809396031092A2031092A103109258
:1043F000A4031092A3031093A5031093A60381ECCA
:104400008093A0030E940F0366E973E00E945403A7
:104410001093A703E091A103F091A203309709F054
:10442000B5C18FEA93E09093A2038093A10380919A
:10443000A3039091A4032091B3033091B403820F9E
:10444000931F9093A4038093A30381E1809321049D
:10445000809320041092EB031092EA031092EE0373
:104460001092F3031092F2038FEF93E09093F50311
:104470008093F4031092F7031092F6039093F903DC
:104480008093F8031092FB031092FA039093FD03BC
:104490008093FC031092FF031092FE03909301049B
:1044A0008093000410920304109202049093050478
:1044B0008093040410920704109206049093090458
:1044C0008093080410920B0410920A0490930D0438
:1044D00080930C0410920F0410920E049093110418
:1044E00080931004109213041092120490931504F8
:1044F00080931404109217041092160490931904D8
:104500008093180410921B0410921A0490931D04B7
:1045100080931C04F3E0F0931E0434E13093ED0328
:104520001092EF038BE18093F00322E02093F103DC
:1045300065E0698381E08A8399E09B8374E07C83F2
:10454000E1EAED838E8345E84F83F88769879A8790
:1045500049E14B878C8749E24D873E8745E14F878C
:10456000188A45E2498B8A8B55E75B8B8C8B45E932
:104570004D8B3E8B35E53F8B188E35E6398F1A8E85
:1045800031E83B8F2C8F5D8F8E8F4F8F78A339A3AF
:10459000FAA36BA38CA39DA38EA3F6E1FF2EFFA22B
:1045A00088A700E809A716E21AA7BFEFBBA7AFE7E5
:1045B000ACA75DA7F0E1FEA74FA778ABE9AB1AAABD
:1045C0009BAB70E37CAB9DAB71E37EAB9FAB73E3C6
:1045D00078AF99AF74E37AAF3BAF2CAF70EC7DAF9F
:1045E0006EAF2FAF2196FFAE219722968FAF229705
:1045F00023960FAF239724961FAF24972596BFAF1E
:1046000025972696AFAF269727965FAF27972896D0
:10461000FFAF289729964FAF29972A968FAF2A97F1
:104620002B96EFAF2B972C961FAE2C972D969FAF06
:104630002D978BEB2E968FAF2E972F963FAF2F9700
:1046400060962FAF609761967FAF619762967FAF5C
:10465000629781E590E00E9421317C0181E5FE01B5
:104660003196D70101900D928A95E1F787E090E0AD
:104670000E9421318C01DC0111961C921E9213962E
:10468000FC92EE92129781E590E015969C938E93A2
:10469000149716961C920E94D108FC01A385B4853C
:1046A000109709F07DC01487038785859685D8010A
:1046B00014962D913C91820F931F96878587909138
:1046C000ED03892F869586958695977009F070C0C1
:1046D0008093EE031091EE03812F90E00E94213130
:1046E0009093EB038093EA0381E09091EF039111A3
:1046F00001C080E0165F810F80931F041092D103E8
:104700001092D0031092D3031092D2031092D503CB
:104710001092D4031092D7031092D6031092D903AB
:104720001092D8031092DB031092DA031092DD038B
:104730001092DC031092DF031092DE031092E1036B
:104740001092E0031092E3031092E2031092E5034B
:104750001092E4038FEF9FEF9093E7038093E603BB
:104760009093E9038093E80390E080E02091EE03CA
:1047700028171906F9F0F4F0E091EA03F091EB0341
:10478000E80FF91F10820196F1CFFC018081918121
:104790000097D9F78FEA93E09183808348CEDC01BC
:1047A0008D919C9111970097D1F70D931C937DCF1C
:1047B0008F5F8ECFCA56DF4F0FB6F894DEBF0FBEA5
:1047C000CDBFDF91CF911F910F91FF90EF90089592
:1047D000CF93DF9300D000D01F92CDB7DEB778948F
:1047E00084B5826084BD84B5816084BD85B58260F6
:1047F00085BD85B5816085BD80916E0081608093A7
:104800006E0010928100809181008260809381000F
:10481000809181008160809381008091800081601F
:1048200080938000809191008260809391008091BC
:1048300091008160809391008091900081608093CD
:1048400090008091C10084608093C1008091C1007C
:1048500082608093C1008091C10081608093C1001B
:104860008091C30081608093C3008091C00082600A
:104870008093C0008091C20081608093C2008091CB
:104880007A00846080937A0080917A0082608093BD
:104890007A0080917A00816080937A0080917A001A
:1048A000806880937A001092BE0210927302109278
:1048B00072028091D70081608093D70080EA809354
:1048C000D80089B5806189BD89B5826089BD09B488
:1048D00000FEFDCF61E070E080E090E00E941A05EC
:1048E0008091D8008F7C80618093D8008091E00017
:1048F000807F8093E0008091E1008E7E8093E100D4
:104900008DE08093E200559A209A5D9A62E081E101
:104910000E94B904198262E089810E94B904498128
:104920004F5F49834131B9F752E1598362E0898190
:104930000E94B90489818F5F89838831B9F760E06B
:104940008AE00E94B90460E08BE00E94B9046CE246
:1049500071E080E090E00E941A050E94F21410922B
:10496000B80281E08093B9028093BC021092900259
:104970001092A50210927502109282028AE00E94A3
:10498000900421E0892B09F420E02093BB028BE006
:104990000E94900421E0892B09F020E02093BA02C4
:1049A0008091A602882319F081E08093750290918E
:1049B000AB02998381E090E00E945119A981AA235A
:1049C00061F09091AC02992341F060E0813009F0F0
:1049D00061E081E090E00E943D1981E090E00E945A
:1049E0005119813011F480939002B091AD02B983D6
:1049F00082E090E00E9451194981442341F060E037
:104A0000813009F061E082E090E00E943D1982E08F
:104A100090E00E945119813011F4809374028091CA
:104A2000B102882339F18091B602882319F180916F
:104A3000A60281111FC08091AE0281111BC080911E
:104A4000B302811117C08091B202811113C080910D
:104A5000B40281110FC08091B70281110BC0809107
:104A6000B002811107C08091B502811103C081E0BD
:104A70008093A502109291028091A802882351F19F
:104A80008091A702882319F081E0809391028091A0
:104A900091029091B002992319F08E5F8093910258
:104AA000809191029091B402992319F08C5F8093C8
:104AB000910260919102662321F083E090E00E94D0
:104AC0003D198091B502882329F060E083E090E0F1
:104AD0000E943D1983E090E00E9451198093910259
:104AE0008091BA02811118C085E090E09A83898391
:104AF0000E94870A182F81110DC0A981BA811197D0
:104B0000BA83A983AB2BA1F762E070E080E090E06C
:104B10000E941A051093BA028091BB028823C1F04B
:104B200045E050E05A8349830E94BB09182F811148
:104B30000DC089819A8101979A838983892BA1F776
:104B400062E070E080E090E00E941A051093BB02E2
:104B50008091BB0281110EC08091BA02882351F06E
:104B600080917502882331F01092A4021092820283
:104B70001092B902412C512C32014A94FF24F39433
:104B800088248A94912C45E4B42E10E852E3D52E63
:104B900066E5362E7BEB272E89E00E949004892B58
:104BA00011F0F092BC028091BC02882309F464C029
:104BB00089E00E949004892B09F05EC01092BC022B
:104BC000789460E081E10E94B90464EF71E080E0D4
:104BD00090E00E941A051092C0021092BF0210923B
:104BE00029031092280310920703F09206031092F3
:104BF000E10282E00E946A0483E00E946A048091DC
:104C0000B9008E7F8093B9008091B9008D7F809329
:104C1000B90098E49093B800B092BC00ABE3B2E066
:104C2000B0937902A09378024CE352E0509377025C
:104C30004093760260EF85E50E94AC066BEF80E062
:104C40000E94AC060E9431186AE070E080E090E0BB
:104C50000E941A050E94311880912C03805880937D
:104C60008F0280912E03805880938E026AE070E05C
:104C700080E090E00E941A058091BA029091BB02F8
:104C8000992309F4F6C0882309F430C30E94F21472
:104C90000E943B110E945A100E941D0F0E94CF0ECD
:104CA0008091A702882309F4A7C064E387E30E94E8
:104CB0003F0D809189028823A9F080917D0267E1F0
:104CC0008111B1C08091B002882361F08091B1025E
:104CD000811108C080917A02811104C060E08FE2E6
:104CE0000E943F0D80917F0281110E94650E0E94FB
:104CF000D40D0E94660D89E00E949004892B11F466
:104D00000E94FF1880917C02882309F4AFC0809133
:104D10007B02823070F49091B402992309F491C01F
:104D200010939E0220929F02F09292028F5F8093D6
:104D30007B0290919E02905890939E0280919F02D8
:104D4000805880939F02909320018093210180914D
:104D50001E0190919A0290FB81F990919B0290FB29
:104D600080F990919C0290FB83F990919D0290FBB9
:104D700082F99091990290FB84F980931E01209111
:104D8000970290919802211101C0292F80911E0154
:104D900020FB85F92091920220FB87F92091930254
:104DA00020FB86F980931E0180911F01867F209150
:104DB000950220FB81F92091940220FB82F9209139
:104DC000960220FB84F980931F01992329F090918A
:104DD000A70291119091A80280911F0190FB85F983
:104DE00080931F010E94BB0980E090E0892B09F4A9
:104DF000D3CE0E940000C7CE8091A802882309F478
:104E000071CF6BE387E10E943F0D80918902882377
:104E100009F468CF80917D02811164CF8091B10245
:104E2000882319F060E08BE35BCF8091B002882388
:104E300009F458CF80917A02811154CF60E083E267
:104E40004FCF9091B502992329F010939E02B09212
:104E50009F026ACF9091B70210939F02992319F095
:104E600020929E0261CFB0929E025ECF10927B0292
:104E700060CF882309F43AC20E94F2148091A502FF
:104E8000882309F470C00E94871189E00E94900471
:104E9000892B41F40E94FF188091A402811102C065
:104EA0000E94531980919E028093310180919F024C
:104EB000809332018091A102809333018091A002FE
:104EC0008093340190912F018091920280FB90F9A0
:104ED0008091930280FB91F98091940280FB92F97A
:104EE0008091950280FB93F9809130012091960288
:104EF00020FB84F92091970220FB86F920919802EB
:104F000020FB85F92091A202209336012091A30273
:104F1000209335012091990220FB94F990932F0161
:104F200090919A0290FB80F990919B0290FB81F9FD
:104F300090919C0290FB83F990919D0290FB82F9E5
:104F4000809330018091B90281110E94BC0C809144
:104F50008202843009F0A5C10E94870A811144CFE2
:104F60000E94BC0C41CF8091A402882309F496C111
:104F70000E943B110E945A108091900281110E9460
:104F8000850D8091A702E091840270918502609165
:104F9000830290918602882321F02091A80221119A
:104FA000E4C010929C0210929D0210929A021092FC
:104FB0009B02A92FA71BBB0B9D01F0E5FA9F402D7B
:104FC000112440584093A102AE2FA61BBB0BAF9FEC
:104FD000402D112440584093A002911102C0772324
:104FE000D1F0E11118C0611116C090917E02992391
:104FF00091F09091A802891B990B98E2899F802DCE
:10500000112480588093A002B1E4B29F202D112476
:1050100020582093A1020E94CF0E8091A702909168
:10502000A802882309F4C2C09111C0C063E385E3DC
:105030000E943F0D80918A02882321F062E385E37C
:105040000E943F0D80917D029091890291119AC03A
:105050008111A0C040917F0249834423C1F0809117
:10506000A702882321F09091A802911110C090917D
:10507000AD029111E2C0882309F4C7C08091860275
:10508000882309F4B1C06BE18BE40E943F0D80914D
:10509000AD028823F9F0598151111CC08091AE02F4
:1050A00081111CC060E580E50E943F0D809189025E
:1050B000882381F080918B02882321F064E38CE3C4
:1050C0000E943F0D80918A02882321F067E38AE3E2
:1050D0000E943F0D8091AE028823A1F080917E0254
:1050E000811110C08091AD02811110C063E383E390
:1050F0000E943F0D8091AD02882321F060E580E59C
:105100000E943F0D8091AD02882361F18091A7023A
:10511000882321F066E286E40E943F0D8091A80278
:10512000882321F066E486E20E943F0D8091AD0263
:105130008823C1F0809189028823A1F080917D02AB
:10514000882381F08091A70281110CC08091A80270
:10515000811108C08091B102882321F064E284E2C9
:105160000E943F0D0E94660D90CEE0939C027093CA
:105170009A0260939D0290939B021093A102109358
:10518000A00249CF882309F4FDC468E285E30E94A8
:105190003F0D60CF8091B002811105C08091B102B6
:1051A000882309F457CF6AE280E0F1CF992309F40C
:1051B00051CF81114FCF63E38AE10E943F0D80916F
:1051C0008A02882321F062E385E30E943F0D8091EB
:1051D0008902882309F43ECF80917D02882309F457
:1051E000DDC463E387E2D3CF80918402882319F082
:1051F00063E287E44ACF80918502882319F06AE24E
:1052000082E443CF61E38DE340CF80918302882322
:1052100019F06DE381E339CF80918502882319F07D
:1052200062E48AE232CF80918402882319F067E435
:1052300083E22BCF6BE48BE128CF8823C1F08091F0
:105240008602882319F061E180E31FCF80918402F8
:10525000882319F067E18EE218CF809185028823B8
:1052600019F06BE18BE211CF60E288E20ECF809102
:105270008302882319F068E280E207CF80918502DB
:10528000882311F06BE2D7CF80918402882319F034
:105290006EE287E1FACE62E38FE0F7CE0E946C12F5
:1052A000F4CD0E94870A80918002909181029A83B6
:1052B0008983892B09F498CD89E00E949004A98103
:1052C000BA81892B21F4AC5DB540BA83A983A230A1
:1052D000B10508F489CDAA0FBB1FAA0FBB1F1597F4
:1052E000BA83A983CD010197F1F77ECD8091B902F0
:1052F000811102C00E94F2148091B802823031F014
:105300000E943B110E945A100E94CF0EA090AF0243
:10531000C090AE02E090AD020091B0022091B102C7
:105320004091B2026091B3028091A6020E94FB0AF2
:10533000A090B702C090B602E090A8020091A70228
:105340002091AB024091AC026091AA028091A90227
:105350000E94FB0AA12CC12CE12C00E020E040E0DF
:105360006091B5028091B4020E94FB0A6AE08AE370
:1053700093E00E949C038091B9028823D9F0809128
:10538000A7028111F092B8028091A802882319F037
:1053900082E08093B8028091B802823009F014C193
:1053A0008DEB93E00E9495158DEB93E00E94D90759
:1053B0001092B9028091B802813009F08CC18091BD
:1053C000900281110E94850D19828091ED039981CF
:1053D000981718F4892F0E940F18A981AF5FA9832D
:1053E000A43199F789E00E949004892B09F019C132
:1053F0000E94311880918E0220912E0330912F034C
:10540000281B3109A9E8BEEF0E94FE30A3019201DA
:105410000E94F02DDA01C901855C9E4FAF4FBF4F4E
:1054200089839A83AB83BC8380918F02A0912C03E4
:10543000B0912D03A81BB10927E731E00E94063186
:10544000A30192010E94F02D2C5331094109510909
:105450003093D1032093D0038091EC0381110E94FB
:105460005216A981BA81B093D303A093D20380913D
:10547000EC0381110E94521680918D02882319F04D
:105480008CE00E94EA1780918C02882319F08DE04D
:105490000E94EA1780918B02882319F08EE00E9407
:1054A000EA1780918A02882319F08FE00E94EA1798
:1054B0008091A702882319F080E10E94EA17809169
:1054C000A802882319F081E10E94EA17809136032F
:1054D00090913703892B19F085E00E94EA1780919B
:1054E000380390913903892B19F085E00E94EA175F
:1054F0008091B002882319F080E00E94EA17809121
:10550000B102882319F082E00E94EA178091B2026A
:10551000882319F083E00E94EA178091B302882360
:1055200019F083E00E94EA178091AF02882319F0F6
:1055300084E00E94EA178091AD02882319F085E08B
:105540000E94EA178091A602882319F089E00E9440
:10555000EA178091AE02882319F086E00E94EA17CC
:105560008091860290918502891B990B01969695F0
:10557000982F8827979587959093D7038093D60384
:105580008091EC0381110E94521620918402809137
:105590008302281B330B1203C001139F900D1124AB
:1055A00080589F4F9093D9038093D8038091EC0348
:1055B00081110E9452160E94521664E070E080E051
:1055C00090E00E941A0510CC1092EC030E94521633
:1055D0001092F3031092F2039092F5038092F40379
:1055E0001092F7031092F6039092F9038092F80359
:1055F00010920F0410920E049092110480921004E5
:105600001092FF031092FE03909201048092000416
:1056100010920304109202049092050480920404F4
:10562000C7CE8091A8029091A702992309F4A4C241
:10563000811149C080918B02882309F43FC0809179
:10564000890281113BC03092880220918D028091A5
:105650008C02281B330B40918702429FC001439F5D
:10566000900D112480589F4F9093D1038093D003C5
:105670008091EC0381110E94521640918B0280911F
:105680008A02481B550B8091880290E09195819584
:105690009109489F9001499F300D589F300D11246A
:1056A00020583F4F3093D3032093D2038091EC03D3
:1056B000882309F41DCF0E9452161ACF3092870218
:1056C000D0928802C2CFD0928702FACF109387027D
:1056D00010938802BACF823009F088C18091B1025C
:1056E0006AE6882309F4B6C08DEB93E00E940516A4
:1056F0008091B2026BE6882309F4B1C08DEB93E090
:105700000E9405168091B30269E6882309F4ACC0B3
:105710008DEB93E00E9405168091AF026CE6882322
:1057200009F4A7C08DEB93E00E9405168091AD02AD
:1057300061E6882309F4A2C08DEB93E00E94051670
:105740008091AE0268E6882309F49DC08DEB93E05A
:105750000E9405168091A60267E6882309F498C086
:105760008DEB93E00E9405168091B6026FE68823C8
:1057700009F493C08DEB93E00E9405168091B4026A
:105780006EE6882309F48EC08DEB93E00E94051627
:105790008091B70260E7882309F489C08DEB93E01C
:1057A0000E9405168091B50262E7882309F484C03F
:1057B0008DEB93E00E9405168091A80266E688238F
:1057C00009F47FC08DEB93E00E940516B091910221
:1057D000B9838091AC029B2F9150973008F0B3C0F1
:1057E000882309F473C08FE40E94EC158091AB020A
:1057F000882309F46FC080E50E94EC158091AA020D
:10580000882309F46BC081E50E94EC154091A90240
:105810004D835981543008F465C0545059838091A8
:10582000B0029981923008F46CC092509983811132
:1058300075C08091A702A981AA2309F471C08823A9
:1058400009F475C082E50E94EC158DEB93E00E948F
:10585000D907B3CE8DEB93E00E94121649CF8DEBA2
:1058600093E00E9412164ECF8DEB93E00E94121629
:1058700053CF8DEB93E00E94121658CF8DEB93E03F
:105880000E9412165DCF8DEB93E00E94121662CF3C
:105890008DEB93E00E94121667CF8DEB93E00E9490
:1058A00012166CCF8DEB93E00E94121671CF8DEB28
:1058B00093E00E94121676CF8DEB93E00E941216B1
:1058C0007BCF8DEB93E00E94121680CF8FE40E9475
:1058D000F2158CCF80E50E94F21590CF81E50E94F1
:1058E000F21594CF8D816DE6882331F08DEB93E036
:1058F0000E9405161D8293CF8DEB93E00E94121635
:105900008ECF61E7882329F08DEB93E00E94051686
:1059100090CF8DEB93E00E9412168BCF8D8389CFB1
:1059200065E6882359F08DEB93E00E940516BD8152
:10593000B11188CF82E50E94F21587CF8DEB93E0FD
:105940000E941216F4CF64E6882391F18DEB93E068
:105950000E9405168091AB0262E6882371F18DEBFF
:1059600093E00E9405168091AA0263E6882351F114
:105970008DEB93E00E9405168091A9026DE68823C5
:1059800031F18DEB93E00E9405168091B00261E742
:10599000882311F18DEB93E00E9405168091A702F8
:1059A00065E68823F1F08DEB93E00E9405164DCF5C
:1059B0008DEB93E00E941216CDCF8DEB93E00E9409
:1059C0001216D1CF8DEB93E00E941216D5CF8DEB3E
:1059D00093E00E941216D9CF8DEB93E00E9412162D
:1059E000DDCF8DEB93E00E9412162FCF19828091AC
:1059F000ED034981481718F4842F0E940F1859812C
:105A00005F5F59835C3099F78091A502882309F480
:105A1000ABC00E94871189E00E949004892B41F459
:105A20000E94FF188091A402811102C00E945319A4
:105A300080919E0290E09093D1038093D003809157
:105A4000EC0381110E94521680919F0290E0909386
:105A5000D3038093D2038091EC0381110E945216EC
:105A60008091A10290E09093D7038093D603809118
:105A7000EC0381110E9452168091A00290E0909355
:105A8000D9038093D8038091EC0381110E945216B0
:105A90008091A30290E09093DD038093DC038091DA
:105AA000EC0381110E94521680919202882319F012
:105AB00080E00E94EA1780919302882319F081E028
:105AC0000E94EA1780919402882319F082E00E94D4
:105AD000EA1780919502882319F083E00E94EA1763
